=~=~=~=~=~=~=~=~=~=~=~= PuTTY log 2025.04.15 10:58:19 =~=~=~=~=~=~=~=~=~=~=~=
login as: root
root@root:~# tcpdump -i br0 src 192.168.62.11 and dst port 10100 -XX -vvv -nn
tcpdump: listening on br0, link-type EN10MB (Ethernet), snapshot length 262144 bytes
10:58:16.546557 IP (tos 0x0, ttl 64, id 523, offset 0, flags [DF], proto UDP (17), length 220)
    192.168.62.11.36589 > 192.168.62.31.10100: [bad udp cksum 0xfe54 -> 0xc4a8!] UDP, length 192
	0x0000:  a44c 6225 6011 001d f313 1c23 0800 4500  .Lb%`......#..E.
	0x0010:  00dc 020b 4000 4011 3a8b c0a8 3e0b c0a8  ....@.@.:...>...
	0x0020:  3e1f 8eed 2774 00c8 fe54 aaaa c000 050b  >...'t...T......
	0x0030:  2300 0000 0000 0000 0000 0000 0000 0000  #...............
	0x0040:  4658 4431 2d4a 3030 3031 0000 0000 b1e4  FXD1-J0001......
	0x0050:  c1f7 b9f1 312d 31ba c50a 0000 0000 0000  ....1-1.........
	0x0060:  0000 1904 0f0a 3a12 0000 0000 0000 0000  ......:.........
	0x0070:  0000 0000 0000 0000 0000 0000 0000 0000  ................
	0x0080:  0000 0000 0000 0000 0000 0000 0000 0000  ................
	0x0090:  0000 0000 0000 0000 0000 0000 0000 0000  ................
	0x00a0:  0000 0000 0000 0000 0000 0000 0000 0000  ................
	0x00b0:  0000 0000 0000 0000 0000 0000 0000 0000  ................
	0x00c0:  0000 0000 0000 0000 0000 0000 0000 0000  ................
	0x00d0:  0000 0000 0000 0000 0000 0000 0000 0000  ................
	0x00e0:  0000 0000 0000 0000 230c                 ........#.
10:58:16.546722 IP (tos 0x0, ttl 64, id 63051, offset 0, flags [DF], proto UDP (17), length 220)
    192.168.62.11.35612 > 192.168.62.32.10100: [bad udp cksum 0xfe55 -> 0xc678!] UDP, length 192
	0x0000:  a44c 622e 5a2e 001d f313 1c23 0800 4500  .Lb.Z......#..E.
	0x0010:  00dc f64b 4000 4011 4649 c0a8 3e0b c0a8  ...K@.@.FI..>...
	0x0020:  3e20 8b1c 2774 00c8 fe55 aaaa c000 050b  >...'t...U......
	0x0030:  2300 0000 0000 0000 0000 0000 0000 0000  #...............
	0x0040:  4658 4431 2d4a 3030 3031 0000 0000 b1e4  FXD1-J0001......
	0x0050:  c1f7 b9f1 312d 32ba c50a 0000 0000 0000  ....1-2.........
	0x0060:  0000 1904 0f0a 3a12 0000 0000 0000 0000  ......:.........
	0x0070:  0000 0000 0000 0000 0000 0000 0000 0000  ................
	0x0080:  0000 0000 0000 0000 0000 0000 0000 0000  ................
	0x0090:  0000 0000 0000 0000 0000 0000 0000 0000  ................
	0x00a0:  0000 0000 0000 0000 0000 0000 0000 0000  ................
	0x00b0:  0000 0000 0000 0000 0000 0000 0000 0000  ................
	0x00c0:  0000 0000 0000 0000 0000 0000 0000 0000  ................
	0x00d0:  0000 0000 0000 0000 0000 0000 0000 0000  ................
	0x00e0:  0000 0000 0000 0000 240c                 ........$.
10:58:16.546876 IP (tos 0x0, ttl 64, id 54325, offset 0, flags [DF], proto UDP (17), length 220)
    192.168.62.11.53067 > 192.168.62.33.10100: [bad udp cksum 0xfe56 -> 0x8048!] UDP, length 192
	0x0000:  a44c 6231 2d5c 001d f313 1c23 0800 4500  .Lb1-\.....#..E.
	0x0010:  00dc d435 4000 4011 685e c0a8 3e0b c0a8  ...5@.@.h^..>...
	0x0020:  3e21 cf4b 2774 00c8 fe56 aaaa c000 050b  >!.K't...V......
	0x0030:  2300 0000 0000 0000 0000 0000 0000 0000  #...............
	0x0040:  4658 4431 2d4a 3030 3031 0000 0000 b1e4  FXD1-J0001......
	0x0050:  c1f7 b9f1 312d 33ba c50a 0000 0000 0000  ....1-3.........
	0x0060:  0000 1904 0f0a 3a12 0000 0000 0000 0000  ......:.........
	0x0070:  0000 0000 0000 0000 0000 0000 0000 0000  ................
	0x0080:  0000 0000 0000 0000 0000 0000 0000 0000  ................
	0x0090:  0000 0000 0000 0000 0000 0000 0000 0000  ................
	0x00a0:  0000 0000 0000 0000 0000 0000 0000 0000  ................
	0x00b0:  0000 0000 0000 0000 0000 0000 0000 0000  ................
	0x00c0:  0000 0000 0000 0000 0000 0000 0000 0000  ................
	0x00d0:  0000 0000 0000 0000 0000 0000 0000 0000  ................
	0x00e0:  0000 0000 0000 0000 250c                 ........%.
10:58:16.547057 IP (tos 0x0, ttl 64, id 23258, offset 0, flags [DF], proto UDP (17), length 220)
    192.168.62.11.33495 > 192.168.62.34.10100: [bad udp cksum 0xfe57 -> 0xcabb!] UDP, length 192
	0x0000:  a44c 622e 5a3a 001d f313 1c23 0800 4500  .Lb.Z:.....#..E.
	0x0010:  00dc 5ada 4000 4011 e1b8 c0a8 3e0b c0a8  ..Z.@.@.....>...
	0x0020:  3e22 82d7 2774 00c8 fe57 aaaa c000 050b  >"..'t...W......
	0x0030:  2300 0000 0000 0000 0000 0000 0000 0000  #...............
	0x0040:  4658 4431 2d4a 3030 3031 0000 0000 b1e4  FXD1-J0001......
	0x0050:  c1f7 b9f1 312d 34ba c50a 0000 0000 0000  ....1-4.........
	0x0060:  0000 1904 0f0a 3a12 0000 0000 0000 0000  ......:.........
	0x0070:  0000 0000 0000 0000 0000 0000 0000 0000  ................
	0x0080:  0000 0000 0000 0000 0000 0000 0000 0000  ................
	0x0090:  0000 0000 0000 0000 0000 0000 0000 0000  ................
	0x00a0:  0000 0000 0000 0000 0000 0000 0000 0000  ................
	0x00b0:  0000 0000 0000 0000 0000 0000 0000 0000  ................
	0x00c0:  0000 0000 0000 0000 0000 0000 0000 0000  ................
	0x00d0:  0000 0000 0000 0000 0000 0000 0000 0000  ................
	0x00e0:  0000 0000 0000 0000 260c                 ........&.
10:58:17.593724 IP (tos 0x0, ttl 64, id 721, offset 0, flags [DF], proto UDP (17), length 220)
    192.168.62.11.36589 > 192.168.62.31.10100: [bad udp cksum 0xfe54 -> 0xc1a7!] UDP, length 192
	0x0000:  a44c 6225 6011 001d f313 1c23 0800 4500  .Lb%`......#..E.
	0x0010:  00dc 02d1 4000 4011 39c5 c0a8 3e0b c0a8  ....@.@.9...>...
	0x0020:  3e1f 8eed 2774 00c8 fe54 aaaa c000 050b  >...'t...T......
	0x0030:  2400 0000 0000 0000 0000 0000 0000 0000  $...............
	0x0040:  4658 4431 2d4a 3030 3031 0000 0000 b1e4  FXD1-J0001......
	0x0050:  c1f7 b9f1 312d 31ba c50a 0000 0000 0000  ....1-1.........
	0x0060:  0000 1904 0f0a 3a13 0000 0000 0000 0000  ......:.........
	0x0070:  0000 0000 0000 0000 0000 0000 0000 0000  ................
	0x0080:  0000 0000 0000 0000 0000 0000 0000 0000  ................
	0x0090:  0000 0000 0000 0000 0000 0000 0000 0000  ................
	0x00a0:  0000 0000 0000 0000 0000 0000 0000 0000  ................
	0x00b0:  0000 0000 0000 0000 0000 0000 0000 0000  ................
	0x00c0:  0000 0000 0000 0000 0000 0000 0000 0000  ................
	0x00d0:  0000 0000 0000 0000 0000 0000 0000 0000  ................
	0x00e0:  0000 0000 0000 0000 250c                 ........%.
10:58:17.593901 IP (tos 0x0, ttl 64, id 63186, offset 0, flags [DF], proto UDP (17), length 220)
    192.168.62.11.35612 > 192.168.62.32.10100: [bad udp cksum 0xfe55 -> 0xc377!] UDP, length 192
	0x0000:  a44c 622e 5a2e 001d f313 1c23 0800 4500  .Lb.Z......#..E.
	0x0010:  00dc f6d2 4000 4011 45c2 c0a8 3e0b c0a8  ....@.@.E...>...
	0x0020:  3e20 8b1c 2774 00c8 fe55 aaaa c000 050b  >...'t...U......
	0x0030:  2400 0000 0000 0000 0000 0000 0000 0000  $...............
	0x0040:  4658 4431 2d4a 3030 3031 0000 0000 b1e4  FXD1-J0001......
	0x0050:  c1f7 b9f1 312d 32ba c50a 0000 0000 0000  ....1-2.........
	0x0060:  0000 1904 0f0a 3a13 0000 0000 0000 0000  ......:.........
	0x0070:  0000 0000 0000 0000 0000 0000 0000 0000  ................
	0x0080:  0000 0000 0000 0000 0000 0000 0000 0000  ................
	0x0090:  0000 0000 0000 0000 0000 0000 0000 0000  ................
	0x00a0:  0000 0000 0000 0000 0000 0000 0000 0000  ................
	0x00b0:  0000 0000 0000 0000 0000 0000 0000 0000  ................
	0x00c0:  0000 0000 0000 0000 0000 0000 0000 0000  ................
	0x00d0:  0000 0000 0000 0000 0000 0000 0000 0000  ................
	0x00e0:  0000 0000 0000 0000 260c                 ........&.
10:58:17.594058 IP (tos 0x0, ttl 64, id 54458, offset 0, flags [DF], proto UDP (17), length 220)
    192.168.62.11.53067 > 192.168.62.33.10100: [bad udp cksum 0xfe56 -> 0x7d47!] UDP, length 192
	0x0000:  a44c 6231 2d5c 001d f313 1c23 0800 4500  .Lb1-\.....#..E.
	0x0010:  00dc d4ba 4000 4011 67d9 c0a8 3e0b c0a8  ....@.@.g...>...
	0x0020:  3e21 cf4b 2774 00c8 fe56 aaaa c000 050b  >!.K't...V......
	0x0030:  2400 0000 0000 0000 0000 0000 0000 0000  $...............
	0x0040:  4658 4431 2d4a 3030 3031 0000 0000 b1e4  FXD1-J0001......
	0x0050:  c1f7 b9f1 312d 33ba c50a 0000 0000 0000  ....1-3.........
	0x0060:  0000 1904 0f0a 3a13 0000 0000 0000 0000  ......:.........
	0x0070:  0000 0000 0000 0000 0000 0000 0000 0000  ................
	0x0080:  0000 0000 0000 0000 0000 0000 0000 0000  ................
	0x0090:  0000 0000 0000 0000 0000 0000 0000 0000  ................
	0x00a0:  0000 0000 0000 0000 0000 0000 0000 0000  ................
	0x00b0:  0000 0000 0000 0000 0000 0000 0000 0000  ................
	0x00c0:  0000 0000 0000 0000 0000 0000 0000 0000  ................
	0x00d0:  0000 0000 0000 0000 0000 0000 0000 0000  ................
	0x00e0:  0000 0000 0000 0000 270c                 ........'.
10:58:17.594227 IP (tos 0x0, ttl 64, id 23323, offset 0, flags [DF], proto UDP (17), length 220)
    192.168.62.11.33495 > 192.168.62.34.10100: [bad udp cksum 0xfe57 -> 0xc7ba!] UDP, length 192
	0x0000:  a44c 622e 5a3a 001d f313 1c23 0800 4500  .Lb.Z:.....#..E.
	0x0010:  00dc 5b1b 4000 4011 e177 c0a8 3e0b c0a8  ..[.@.@..w..>...
	0x0020:  3e22 82d7 2774 00c8 fe57 aaaa c000 050b  >"..'t...W......
	0x0030:  2400 0000 0000 0000 0000 0000 0000 0000  $...............
	0x0040:  4658 4431 2d4a 3030 3031 0000 0000 b1e4  FXD1-J0001......
	0x0050:  c1f7 b9f1 312d 34ba c50a 0000 0000 0000  ....1-4.........
	0x0060:  0000 1904 0f0a 3a13 0000 0000 0000 0000  ......:.........
	0x0070:  0000 0000 0000 0000 0000 0000 0000 0000  ................
	0x0080:  0000 0000 0000 0000 0000 0000 0000 0000  ................
	0x0090:  0000 0000 0000 0000 0000 0000 0000 0000  ................
	0x00a0:  0000 0000 0000 0000 0000 0000 0000 0000  ................
	0x00b0:  0000 0000 0000 0000 0000 0000 0000 0000  ................
	0x00c0:  0000 0000 0000 0000 0000 0000 0000 0000  ................
	0x00d0:  0000 0000 0000 0000 0000 0000 0000 0000  ................
	0x00e0:  0000 0000 0000 0000 280c                 ........(.
10:58:18.656060 IP (tos 0x0, ttl 64, id 752, offset 0, flags [DF], proto UDP (17), length 220)
    192.168.62.11.36589 > 192.168.62.31.10100: [bad udp cksum 0xfe54 -> 0xbfa7!] UDP, length 192
	0x0000:  a44c 6225 6011 001d f313 1c23 0800 4500  .Lb%`......#..E.
	0x0010:  00dc 02f0 4000 4011 39a6 c0a8 3e0b c0a8  ....@.@.9...>...
	0x0020:  3e1f 8eed 2774 00c8 fe54 aaaa c000 050b  >...'t...T......
	0x0030:  2500 0000 0000 0000 0000 0000 0000 0000  %...............
	0x0040:  4658 4431 2d4a 3030 3031 0000 0000 b1e4  FXD1-J0001......
	0x0050:  c1f7 b9f1 312d 31ba c50a 0000 0000 0000  ....1-1.........
	0x0060:  0000 1904 0f0a 3a13 0000 0000 0000 0000  ......:.........
	0x0070:  0000 0000 0000 0000 0000 0000 0000 0000  ................
	0x0080:  0000 0000 0000 0000 0000 0000 0000 0000  ................
	0x0090:  0000 0000 0000 0000 0000 0000 0000 0000  ................
	0x00a0:  0000 0000 0000 0000 0000 0000 0000 0000  ................
	0x00b0:  0000 0000 0000 0000 0000 0000 0000 0000  ................
	0x00c0:  0000 0000 0000 0000 0000 0000 0000 0000  ................
	0x00d0:  0000 0000 0000 0000 0000 0000 0000 0000  ................
	0x00e0:  0000 0000 0000 0000 260c                 ........&.
10:58:18.656231 IP (tos 0x0, ttl 64, id 63440, offset 0, flags [DF], proto UDP (17), length 220)
    192.168.62.11.35612 > 192.168.62.32.10100: [bad udp cksum 0xfe55 -> 0xc177!] UDP, length 192
	0x0000:  a44c 622e 5a2e 001d f313 1c23 0800 4500  .Lb.Z......#..E.
	0x0010:  00dc f7d0 4000 4011 44c4 c0a8 3e0b c0a8  ....@.@.D...>...
	0x0020:  3e20 8b1c 2774 00c8 fe55 aaaa c000 050b  >...'t...U......
	0x0030:  2500 0000 0000 0000 0000 0000 0000 0000  %...............
	0x0040:  4658 4431 2d4a 3030 3031 0000 0000 b1e4  FXD1-J0001......
	0x0050:  c1f7 b9f1 312d 32ba c50a 0000 0000 0000  ....1-2.........
	0x0060:  0000 1904 0f0a 3a13 0000 0000 0000 0000  ......:.........
	0x0070:  0000 0000 0000 0000 0000 0000 0000 0000  ................
	0x0080:  0000 0000 0000 0000 0000 0000 0000 0000  ................
	0x0090:  0000 0000 0000 0000 0000 0000 0000 0000  ................
	0x00a0:  0000 0000 0000 0000 0000 0000 0000 0000  ................
	0x00b0:  0000 0000 0000 0000 0000 0000 0000 0000  ................
	0x00c0:  0000 0000 0000 0000 0000 0000 0000 0000  ................
	0x00d0:  0000 0000 0000 0000 0000 0000 0000 0000  ................
	0x00e0:  0000 0000 0000 0000 270c                 ........'.
10:58:18.656391 IP (tos 0x0, ttl 64, id 54674, offset 0, flags [DF], proto UDP (17), length 220)
    192.168.62.11.53067 > 192.168.62.33.10100: [bad udp cksum 0xfe56 -> 0x7b47!] UDP, length 192
	0x0000:  a44c 6231 2d5c 001d f313 1c23 0800 4500  .Lb1-\.....#..E.
	0x0010:  00dc d592 4000 4011 6701 c0a8 3e0b c0a8  ....@.@.g...>...
	0x0020:  3e21 cf4b 2774 00c8 fe56 aaaa c000 050b  >!.K't...V......
	0x0030:  2500 0000 0000 0000 0000 0000 0000 0000  %...............
	0x0040:  4658 4431 2d4a 3030 3031 0000 0000 b1e4  FXD1-J0001......
	0x0050:  c1f7 b9f1 312d 33ba c50a 0000 0000 0000  ....1-3.........
	0x0060:  0000 1904 0f0a 3a13 0000 0000 0000 0000  ......:.........
	0x0070:  0000 0000 0000 0000 0000 0000 0000 0000  ................
	0x0080:  0000 0000 0000 0000 0000 0000 0000 0000  ................
	0x0090:  0000 0000 0000 0000 0000 0000 0000 0000  ................
	0x00a0:  0000 0000 0000 0000 0000 0000 0000 0000  ................
	0x00b0:  0000 0000 0000 0000 0000 0000 0000 0000  ................
	0x00c0:  0000 0000 0000 0000 0000 0000 0000 0000  ................
	0x00d0:  0000 0000 0000 0000 0000 0000 0000 0000  ................
	0x00e0:  0000 0000 0000 0000 280c                 ........(.
10:58:18.656549 IP (tos 0x0, ttl 64, id 23324, offset 0, flags [DF], proto UDP (17), length 220)
    192.168.62.11.33495 > 192.168.62.34.10100: [bad udp cksum 0xfe57 -> 0xc5ba!] UDP, length 192
	0x0000:  a44c 622e 5a3a 001d f313 1c23 0800 4500  .Lb.Z:.....#..E.
	0x0010:  00dc 5b1c 4000 4011 e176 c0a8 3e0b c0a8  ..[.@.@..v..>...
	0x0020:  3e22 82d7 2774 00c8 fe57 aaaa c000 050b  >"..'t...W......
	0x0030:  2500 0000 0000 0000 0000 0000 0000 0000  %...............
	0x0040:  4658 4431 2d4a 3030 3031 0000 0000 b1e4  FXD1-J0001......
	0x0050:  c1f7 b9f1 312d 34ba c50a 0000 0000 0000  ....1-4.........
	0x0060:  0000 1904 0f0a 3a13 0000 0000 0000 0000  ......:.........
	0x0070:  0000 0000 0000 0000 0000 0000 0000 0000  ................
	0x0080:  0000 0000 0000 0000 0000 0000 0000 0000  ................
	0x0090:  0000 0000 0000 0000 0000 0000 0000 0000  ................
	0x00a0:  0000 0000 0000 0000 0000 0000 0000 0000  ................
	0x00b0:  0000 0000 0000 0000 0000 0000 0000 0000  ................
	0x00c0:  0000 0000 0000 0000 0000 0000 0000 0000  ................
	0x00d0:  0000 0000 0000 0000 0000 0000 0000 0000  ................
	0x00e0:  0000 0000 0000 0000 290c                 ........).
10:58:19.700804 IP (tos 0x0, ttl 64, id 756, offset 0, flags [DF], proto UDP (17), length 220)
    192.168.62.11.36589 > 192.168.62.31.10100: [bad udp cksum 0xfe54 -> 0xbca6!] UDP, length 192
	0x0000:  a44c 6225 6011 001d f313 1c23 0800 4500  .Lb%`......#..E.
	0x0010:  00dc 02f4 4000 4011 39a2 c0a8 3e0b c0a8  ....@.@.9...>...
	0x0020:  3e1f 8eed 2774 00c8 fe54 aaaa c000 050b  >...'t...T......
	0x0030:  2600 0000 0000 0000 0000 0000 0000 0000  &...............
	0x0040:  4658 4431 2d4a 3030 3031 0000 0000 b1e4  FXD1-J0001......
	0x0050:  c1f7 b9f1 312d 31ba c50a 0000 0000 0000  ....1-1.........
	0x0060:  0000 1904 0f0a 3a14 0000 0000 0000 0000  ......:.........
	0x0070:  0000 0000 0000 0000 0000 0000 0000 0000  ................
	0x0080:  0000 0000 0000 0000 0000 0000 0000 0000  ................
	0x0090:  0000 0000 0000 0000 0000 0000 0000 0000  ................
	0x00a0:  0000 0000 0000 0000 0000 0000 0000 0000  ................
	0x00b0:  0000 0000 0000 0000 0000 0000 0000 0000  ................
	0x00c0:  0000 0000 0000 0000 0000 0000 0000 0000  ................
	0x00d0:  0000 0000 0000 0000 0000 0000 0000 0000  ................
	0x00e0:  0000 0000 0000 0000 280c                 ........(.
10:58:19.700983 IP (tos 0x0, ttl 64, id 63600, offset 0, flags [DF], proto UDP (17), length 220)
    192.168.62.11.35612 > 192.168.62.32.10100: [bad udp cksum 0xfe55 -> 0xbe76!] UDP, length 192
	0x0000:  a44c 622e 5a2e 001d f313 1c23 0800 4500  .Lb.Z......#..E.
	0x0010:  00dc f870 4000 4011 4424 c0a8 3e0b c0a8  ...p@.@.D$..>...
	0x0020:  3e20 8b1c 2774 00c8 fe55 aaaa c000 050b  >...'t...U......
	0x0030:  2600 0000 0000 0000 0000 0000 0000 0000  &...............
	0x0040:  4658 4431 2d4a 3030 3031 0000 0000 b1e4  FXD1-J0001......
	0x0050:  c1f7 b9f1 312d 32ba c50a 0000 0000 0000  ....1-2.........
	0x0060:  0000 1904 0f0a 3a14 0000 0000 0000 0000  ......:.........
	0x0070:  0000 0000 0000 0000 0000 0000 0000 0000  ................
	0x0080:  0000 0000 0000 0000 0000 0000 0000 0000  ................
	0x0090:  0000 0000 0000 0000 0000 0000 0000 0000  ................
	0x00a0:  0000 0000 0000 0000 0000 0000 0000 0000  ................
	0x00b0:  0000 0000 0000 0000 0000 0000 0000 0000  ................
	0x00c0:  0000 0000 0000 0000 0000 0000 0000 0000  ................
	0x00d0:  0000 0000 0000 0000 0000 0000 0000 0000  ................
	0x00e0:  0000 0000 0000 0000 290c                 ........).
10:58:19.701142 IP (tos 0x0, ttl 64, id 54929, offset 0, flags [DF], proto UDP (17), length 220)
    192.168.62.11.53067 > 192.168.62.33.10100: [bad udp cksum 0xfe56 -> 0x7846!] UDP, length 192
	0x0000:  a44c 6231 2d5c 001d f313 1c23 0800 4500  .Lb1-\.....#..E.
	0x0010:  00dc d691 4000 4011 6602 c0a8 3e0b c0a8  ....@.@.f...>...
	0x0020:  3e21 cf4b 2774 00c8 fe56 aaaa c000 050b  >!.K't...V......
	0x0030:  2600 0000 0000 0000 0000 0000 0000 0000  &...............
	0x0040:  4658 4431 2d4a 3030 3031 0000 0000 b1e4  FXD1-J0001......
	0x0050:  c1f7 b9f1 312d 33ba c50a 0000 0000 0000  ....1-3.........
	0x0060:  0000 1904 0f0a 3a14 0000 0000 0000 0000  ......:.........
	0x0070:  0000 0000 0000 0000 0000 0000 0000 0000  ................
	0x0080:  0000 0000 0000 0000 0000 0000 0000 0000  ................
	0x0090:  0000 0000 0000 0000 0000 0000 0000 0000  ................
	0x00a0:  0000 0000 0000 0000 0000 0000 0000 0000  ................
	0x00b0:  0000 0000 0000 0000 0000 0000 0000 0000  ................
	0x00c0:  0000 0000 0000 0000 0000 0000 0000 0000  ................
	0x00d0:  0000 0000 0000 0000 0000 0000 0000 0000  ................
	0x00e0:  0000 0000 0000 0000 2a0c                 ........*.
10:58:19.701300 IP (tos 0x0, ttl 64, id 23540, offset 0, flags [DF], proto UDP (17), length 220)
    192.168.62.11.33495 > 192.168.62.34.10100: [bad udp cksum 0xfe57 -> 0xc2b9!] UDP, length 192
	0x0000:  a44c 622e 5a3a 001d f313 1c23 0800 4500  .Lb.Z:.....#..E.
	0x0010:  00dc 5bf4 4000 4011 e09e c0a8 3e0b c0a8  ..[.@.@.....>...
	0x0020:  3e22 82d7 2774 00c8 fe57 aaaa c000 050b  >"..'t...W......
	0x0030:  2600 0000 0000 0000 0000 0000 0000 0000  &...............
	0x0040:  4658 4431 2d4a 3030 3031 0000 0000 b1e4  FXD1-J0001......
	0x0050:  c1f7 b9f1 312d 34ba c50a 0000 0000 0000  ....1-4.........
	0x0060:  0000 1904 0f0a 3a14 0000 0000 0000 0000  ......:.........
	0x0070:  0000 0000 0000 0000 0000 0000 0000 0000  ................
	0x0080:  0000 0000 0000 0000 0000 0000 0000 0000  ................
	0x0090:  0000 0000 0000 0000 0000 0000 0000 0000  ................
	0x00a0:  0000 0000 0000 0000 0000 0000 0000 0000  ................
	0x00b0:  0000 0000 0000 0000 0000 0000 0000 0000  ................
	0x00c0:  0000 0000 0000 0000 0000 0000 0000 0000  ................
	0x00d0:  0000 0000 0000 0000 0000 0000 0000 0000  ................
	0x00e0:  0000 0000 0000 0000 2b0c                 ........+.
10:58:20.745161 IP (tos 0x0, ttl 64, id 900, offset 0, flags [DF], proto UDP (17), length 220)
    192.168.62.11.36589 > 192.168.62.31.10100: [bad udp cksum 0xfe54 -> 0xb8a4!] UDP, length 192
	0x0000:  a44c 6225 6011 001d f313 1c23 0800 4500  .Lb%`......#..E.
	0x0010:  00dc 0384 4000 4011 3912 c0a8 3e0b c0a8  ....@.@.9...>...
	0x0020:  3e1f 8eed 2774 00c8 fe54 aaaa c000 050b  >...'t...T......
	0x0030:  2700 0000 0000 0000 0000 0000 0000 0000  '...............
	0x0040:  4658 4431 2d4a 3030 3031 0000 0000 b1e4  FXD1-J0001......
	0x0050:  c1f7 b9f1 312d 31ba c50a 0000 0000 0000  ....1-1.........
	0x0060:  0000 1904 0f0a 3a16 0000 0000 0000 0000  ......:.........
	0x0070:  0000 0000 0000 0000 0000 0000 0000 0000  ................
	0x0080:  0000 0000 0000 0000 0000 0000 0000 0000  ................
	0x0090:  0000 0000 0000 0000 0000 0000 0000 0000  ................
	0x00a0:  0000 0000 0000 0000 0000 0000 0000 0000  ................
	0x00b0:  0000 0000 0000 0000 0000 0000 0000 0000  ................
	0x00c0:  0000 0000 0000 0000 0000 0000 0000 0000  ................
	0x00d0:  0000 0000 0000 0000 0000 0000 0000 0000  ................
	0x00e0:  0000 0000 0000 0000 2b0c                 ........+.
10:58:20.745866 IP (tos 0x0, ttl 64, id 63801, offset 0, flags [DF], proto UDP (17), length 220)
    192.168.62.11.35612 > 192.168.62.32.10100: [bad udp cksum 0xfe55 -> 0xba74!] UDP, length 192
	0x0000:  a44c 622e 5a2e 001d f313 1c23 0800 4500  .Lb.Z......#..E.
	0x0010:  00dc f939 4000 4011 435b c0a8 3e0b c0a8  ...9@.@.C[..>...
	0x0020:  3e20 8b1c 2774 00c8 fe55 aaaa c000 050b  >...'t...U......
	0x0030:  2700 0000 0000 0000 0000 0000 0000 0000  '...............
	0x0040:  4658 4431 2d4a 3030 3031 0000 0000 b1e4  FXD1-J0001......
	0x0050:  c1f7 b9f1 312d 32ba c50a 0000 0000 0000  ....1-2.........
	0x0060:  0000 1904 0f0a 3a16 0000 0000 0000 0000  ......:.........
	0x0070:  0000 0000 0000 0000 0000 0000 0000 0000  ................
	0x0080:  0000 0000 0000 0000 0000 0000 0000 0000  ................
	0x0090:  0000 0000 0000 0000 0000 0000 0000 0000  ................
	0x00a0:  0000 0000 0000 0000 0000 0000 0000 0000  ................
	0x00b0:  0000 0000 0000 0000 0000 0000 0000 0000  ................
	0x00c0:  0000 0000 0000 0000 0000 0000 0000 0000  ................
	0x00d0:  0000 0000 0000 0000 0000 0000 0000 0000  ................
	0x00e0:  0000 0000 0000 0000 2c0c                 ........,.
10:58:20.746551 IP (tos 0x0, ttl 64, id 55151, offset 0, flags [DF], proto UDP (17), length 220)
    192.168.62.11.53067 > 192.168.62.33.10100: [bad udp cksum 0xfe56 -> 0x7444!] UDP, length 192
	0x0000:  a44c 6231 2d5c 001d f313 1c23 0800 4500  .Lb1-\.....#..E.
	0x0010:  00dc d76f 4000 4011 6524 c0a8 3e0b c0a8  ...o@.@.e$..>...
	0x0020:  3e21 cf4b 2774 00c8 fe56 aaaa c000 050b  >!.K't...V......
	0x0030:  2700 0000 0000 0000 0000 0000 0000 0000  '...............
	0x0040:  4658 4431 2d4a 3030 3031 0000 0000 b1e4  FXD1-J0001......
	0x0050:  c1f7 b9f1 312d 33ba c50a 0000 0000 0000  ....1-3.........
	0x0060:  0000 1904 0f0a 3a16 0000 0000 0000 0000  ......:.........
	0x0070:  0000 0000 0000 0000 0000 0000 0000 0000  ................
	0x0080:  0000 0000 0000 0000 0000 0000 0000 0000  ................
	0x0090:  0000 0000 0000 0000 0000 0000 0000 0000  ................
	0x00a0:  0000 0000 0000 0000 0000 0000 0000 0000  ................
	0x00b0:  0000 0000 0000 0000 0000 0000 0000 0000  ................
	0x00c0:  0000 0000 0000 0000 0000 0000 0000 0000  ................
	0x00d0:  0000 0000 0000 0000 0000 0000 0000 0000  ................
	0x00e0:  0000 0000 0000 0000 2d0c                 ........-.
10:58:20.747302 IP (tos 0x0, ttl 64, id 23751, offset 0, flags [DF], proto UDP (17), length 220)
    192.168.62.11.33495 > 192.168.62.34.10100: [bad udp cksum 0xfe57 -> 0xbeb7!] UDP, length 192
	0x0000:  a44c 622e 5a3a 001d f313 1c23 0800 4500  .Lb.Z:.....#..E.
	0x0010:  00dc 5cc7 4000 4011 dfcb c0a8 3e0b c0a8  ..\.@.@.....>...
	0x0020:  3e22 82d7 2774 00c8 fe57 aaaa c000 050b  >"..'t...W......
	0x0030:  2700 0000 0000 0000 0000 0000 0000 0000  '...............
	0x0040:  4658 4431 2d4a 3030 3031 0000 0000 b1e4  FXD1-J0001......
	0x0050:  c1f7 b9f1 312d 34ba c50a 0000 0000 0000  ....1-4.........
	0x0060:  0000 1904 0f0a 3a16 0000 0000 0000 0000  ......:.........
	0x0070:  0000 0000 0000 0000 0000 0000 0000 0000  ................
	0x0080:  0000 0000 0000 0000 0000 0000 0000 0000  ................
	0x0090:  0000 0000 0000 0000 0000 0000 0000 0000  ................
	0x00a0:  0000 0000 0000 0000 0000 0000 0000 0000  ................
	0x00b0:  0000 0000 0000 0000 0000 0000 0000 0000  ................
	0x00c0:  0000 0000 0000 0000 0000 0000 0000 0000  ................
	0x00d0:  0000 0000 0000 0000 0000 0000 0000 0000  ................
	0x00e0:  0000 0000 0000 0000 2e0c                 ..........
10:58:21.798788 IP (tos 0x0, ttl 64, id 999, offset 0, flags [DF], proto UDP (17), length 220)
    192.168.62.11.36589 > 192.168.62.31.10100: [bad udp cksum 0xfe54 -> 0xb5a3!] UDP, length 192
	0x0000:  a44c 6225 6011 001d f313 1c23 0800 4500  .Lb%`......#..E.
	0x0010:  00dc 03e7 4000 4011 38af c0a8 3e0b c0a8  ....@.@.8...>...
	0x0020:  3e1f 8eed 2774 00c8 fe54 aaaa c000 050b  >...'t...T......
	0x0030:  2800 0000 0000 0000 0000 0000 0000 0000  (...............
	0x0040:  4658 4431 2d4a 3030 3031 0000 0000 b1e4  FXD1-J0001......
	0x0050:  c1f7 b9f1 312d 31ba c50a 0000 0000 0000  ....1-1.........
	0x0060:  0000 1904 0f0a 3a17 0000 0000 0000 0000  ......:.........
	0x0070:  0000 0000 0000 0000 0000 0000 0000 0000  ................
	0x0080:  0000 0000 0000 0000 0000 0000 0000 0000  ................
	0x0090:  0000 0000 0000 0000 0000 0000 0000 0000  ................
	0x00a0:  0000 0000 0000 0000 0000 0000 0000 0000  ................
	0x00b0:  0000 0000 0000 0000 0000 0000 0000 0000  ................
	0x00c0:  0000 0000 0000 0000 0000 0000 0000 0000  ................
	0x00d0:  0000 0000 0000 0000 0000 0000 0000 0000  ................
	0x00e0:  0000 0000 0000 0000 2d0c                 ........-.
10:58:21.798973 IP (tos 0x0, ttl 64, id 63832, offset 0, flags [DF], proto UDP (17), length 220)
    192.168.62.11.35612 > 192.168.62.32.10100: [bad udp cksum 0xfe55 -> 0xb773!] UDP, length 192
	0x0000:  a44c 622e 5a2e 001d f313 1c23 0800 4500  .Lb.Z......#..E.
	0x0010:  00dc f958 4000 4011 433c c0a8 3e0b c0a8  ...X@.@.C<..>...
	0x0020:  3e20 8b1c 2774 00c8 fe55 aaaa c000 050b  >...'t...U......
	0x0030:  2800 0000 0000 0000 0000 0000 0000 0000  (...............
	0x0040:  4658 4431 2d4a 3030 3031 0000 0000 b1e4  FXD1-J0001......
	0x0050:  c1f7 b9f1 312d 32ba c50a 0000 0000 0000  ....1-2.........
	0x0060:  0000 1904 0f0a 3a17 0000 0000 0000 0000  ......:.........
	0x0070:  0000 0000 0000 0000 0000 0000 0000 0000  ................
	0x0080:  0000 0000 0000 0000 0000 0000 0000 0000  ................
	0x0090:  0000 0000 0000 0000 0000 0000 0000 0000  ................
	0x00a0:  0000 0000 0000 0000 0000 0000 0000 0000  ................
	0x00b0:  0000 0000 0000 0000 0000 0000 0000 0000  ................
	0x00c0:  0000 0000 0000 0000 0000 0000 0000 0000  ................
	0x00d0:  0000 0000 0000 0000 0000 0000 0000 0000  ................
	0x00e0:  0000 0000 0000 0000 2e0c                 ..........
10:58:21.799155 IP (tos 0x0, ttl 64, id 55414, offset 0, flags [DF], proto UDP (17), length 220)
    192.168.62.11.53067 > 192.168.62.33.10100: [bad udp cksum 0xfe56 -> 0x7143!] UDP, length 192
	0x0000:  a44c 6231 2d5c 001d f313 1c23 0800 4500  .Lb1-\.....#..E.
	0x0010:  00dc d876 4000 4011 641d c0a8 3e0b c0a8  ...v@.@.d...>...
	0x0020:  3e21 cf4b 2774 00c8 fe56 aaaa c000 050b  >!.K't...V......
	0x0030:  2800 0000 0000 0000 0000 0000 0000 0000  (...............
	0x0040:  4658 4431 2d4a 3030 3031 0000 0000 b1e4  FXD1-J0001......
	0x0050:  c1f7 b9f1 312d 33ba c50a 0000 0000 0000  ....1-3.........
	0x0060:  0000 1904 0f0a 3a17 0000 0000 0000 0000  ......:.........
	0x0070:  0000 0000 0000 0000 0000 0000 0000 0000  ................
	0x0080:  0000 0000 0000 0000 0000 0000 0000 0000  ................
	0x0090:  0000 0000 0000 0000 0000 0000 0000 0000  ................
	0x00a0:  0000 0000 0000 0000 0000 0000 0000 0000  ................
	0x00b0:  0000 0000 0000 0000 0000 0000 0000 0000  ................
	0x00c0:  0000 0000 0000 0000 0000 0000 0000 0000  ................
	0x00d0:  0000 0000 0000 0000 0000 0000 0000 0000  ................
	0x00e0:  0000 0000 0000 0000 2f0c                 ......../.
10:58:21.799319 IP (tos 0x0, ttl 64, id 23790, offset 0, flags [DF], proto UDP (17), length 220)
    192.168.62.11.33495 > 192.168.62.34.10100: [bad udp cksum 0xfe57 -> 0xbbb6!] UDP, length 192
	0x0000:  a44c 622e 5a3a 001d f313 1c23 0800 4500  .Lb.Z:.....#..E.
	0x0010:  00dc 5cee 4000 4011 dfa4 c0a8 3e0b c0a8  ..\.@.@.....>...
	0x0020:  3e22 82d7 2774 00c8 fe57 aaaa c000 050b  >"..'t...W......
	0x0030:  2800 0000 0000 0000 0000 0000 0000 0000  (...............
	0x0040:  4658 4431 2d4a 3030 3031 0000 0000 b1e4  FXD1-J0001......
	0x0050:  c1f7 b9f1 312d 34ba c50a 0000 0000 0000  ....1-4.........
	0x0060:  0000 1904 0f0a 3a17 0000 0000 0000 0000  ......:.........
	0x0070:  0000 0000 0000 0000 0000 0000 0000 0000  ................
	0x0080:  0000 0000 0000 0000 0000 0000 0000 0000  ................
	0x0090:  0000 0000 0000 0000 0000 0000 0000 0000  ................
	0x00a0:  0000 0000 0000 0000 0000 0000 0000 0000  ................
	0x00b0:  0000 0000 0000 0000 0000 0000 0000 0000  ................
	0x00c0:  0000 0000 0000 0000 0000 0000 0000 0000  ................
	0x00d0:  0000 0000 0000 0000 0000 0000 0000 0000  ................
	0x00e0:  0000 0000 0000 0000 300c                 ........0.
10:58:22.841861 IP (tos 0x0, ttl 64, id 1105, offset 0, flags [DF], proto UDP (17), length 220)
    192.168.62.11.36589 > 192.168.62.31.10100: [bad udp cksum 0xfe54 -> 0xb3a3!] UDP, length 192
	0x0000:  a44c 6225 6011 001d f313 1c23 0800 4500  .Lb%`......#..E.
	0x0010:  00dc 0451 4000 4011 3845 c0a8 3e0b c0a8  ...Q@.@.8E..>...
	0x0020:  3e1f 8eed 2774 00c8 fe54 aaaa c000 050b  >...'t...T......
	0x0030:  2900 0000 0000 0000 0000 0000 0000 0000  )...............
	0x0040:  4658 4431 2d4a 3030 3031 0000 0000 b1e4  FXD1-J0001......
	0x0050:  c1f7 b9f1 312d 31ba c50a 0000 0000 0000  ....1-1.........
	0x0060:  0000 1904 0f0a 3a17 0000 0000 0000 0000  ......:.........
	0x0070:  0000 0000 0000 0000 0000 0000 0000 0000  ................
	0x0080:  0000 0000 0000 0000 0000 0000 0000 0000  ................
	0x0090:  0000 0000 0000 0000 0000 0000 0000 0000  ................
	0x00a0:  0000 0000 0000 0000 0000 0000 0000 0000  ................
	0x00b0:  0000 0000 0000 0000 0000 0000 0000 0000  ................
	0x00c0:  0000 0000 0000 0000 0000 0000 0000 0000  ................
	0x00d0:  0000 0000 0000 0000 0000 0000 0000 0000  ................
	0x00e0:  0000 0000 0000 0000 2e0c                 ..........
10:58:22.842064 IP (tos 0x0, ttl 64, id 63938, offset 0, flags [DF], proto UDP (17), length 220)
    192.168.62.11.35612 > 192.168.62.32.10100: [bad udp cksum 0xfe55 -> 0xb573!] UDP, length 192
	0x0000:  a44c 622e 5a2e 001d f313 1c23 0800 4500  .Lb.Z......#..E.
	0x0010:  00dc f9c2 4000 4011 42d2 c0a8 3e0b c0a8  ....@.@.B...>...
	0x0020:  3e20 8b1c 2774 00c8 fe55 aaaa c000 050b  >...'t...U......
	0x0030:  2900 0000 0000 0000 0000 0000 0000 0000  )...............
	0x0040:  4658 4431 2d4a 3030 3031 0000 0000 b1e4  FXD1-J0001......
	0x0050:  c1f7 b9f1 312d 32ba c50a 0000 0000 0000  ....1-2.........
	0x0060:  0000 1904 0f0a 3a17 0000 0000 0000 0000  ......:.........
	0x0070:  0000 0000 0000 0000 0000 0000 0000 0000  ................
	0x0080:  0000 0000 0000 0000 0000 0000 0000 0000  ................
	0x0090:  0000 0000 0000 0000 0000 0000 0000 0000  ................
	0x00a0:  0000 0000 0000 0000 0000 0000 0000 0000  ................
	0x00b0:  0000 0000 0000 0000 0000 0000 0000 0000  ................
	0x00c0:  0000 0000 0000 0000 0000 0000 0000 0000  ................
	0x00d0:  0000 0000 0000 0000 0000 0000 0000 0000  ................
	0x00e0:  0000 0000 0000 0000 2f0c                 ......../.
10:58:22.842223 IP (tos 0x0, ttl 64, id 55430, offset 0, flags [DF], proto UDP (17), length 220)
    192.168.62.11.53067 > 192.168.62.33.10100: [bad udp cksum 0xfe56 -> 0x6f43!] UDP, length 192
	0x0000:  a44c 6231 2d5c 001d f313 1c23 0800 4500  .Lb1-\.....#..E.
	0x0010:  00dc d886 4000 4011 640d c0a8 3e0b c0a8  ....@.@.d...>...
	0x0020:  3e21 cf4b 2774 00c8 fe56 aaaa c000 050b  >!.K't...V......
	0x0030:  2900 0000 0000 0000 0000 0000 0000 0000  )...............
	0x0040:  4658 4431 2d4a 3030 3031 0000 0000 b1e4  FXD1-J0001......
	0x0050:  c1f7 b9f1 312d 33ba c50a 0000 0000 0000  ....1-3.........
	0x0060:  0000 1904 0f0a 3a17 0000 0000 0000 0000  ......:.........
	0x0070:  0000 0000 0000 0000 0000 0000 0000 0000  ................
	0x0080:  0000 0000 0000 0000 0000 0000 0000 0000  ................
	0x0090:  0000 0000 0000 0000 0000 0000 0000 0000  ................
	0x00a0:  0000 0000 0000 0000 0000 0000 0000 0000  ................
	0x00b0:  0000 0000 0000 0000 0000 0000 0000 0000  ................
	0x00c0:  0000 0000 0000 0000 0000 0000 0000 0000  ................
	0x00d0:  0000 0000 0000 0000 0000 0000 0000 0000  ................
	0x00e0:  0000 0000 0000 0000 300c                 ........0.
10:58:22.842390 IP (tos 0x0, ttl 64, id 23879, offset 0, flags [DF], proto UDP (17), length 220)
    192.168.62.11.33495 > 192.168.62.34.10100: [bad udp cksum 0xfe57 -> 0xb9b6!] UDP, length 192
	0x0000:  a44c 622e 5a3a 001d f313 1c23 0800 4500  .Lb.Z:.....#..E.
	0x0010:  00dc 5d47 4000 4011 df4b c0a8 3e0b c0a8  ..]G@.@..K..>...
	0x0020:  3e22 82d7 2774 00c8 fe57 aaaa c000 050b  >"..'t...W......
	0x0030:  2900 0000 0000 0000 0000 0000 0000 0000  )...............
	0x0040:  4658 4431 2d4a 3030 3031 0000 0000 b1e4  FXD1-J0001......
	0x0050:  c1f7 b9f1 312d 34ba c50a 0000 0000 0000  ....1-4.........
	0x0060:  0000 1904 0f0a 3a17 0000 0000 0000 0000  ......:.........
	0x0070:  0000 0000 0000 0000 0000 0000 0000 0000  ................
	0x0080:  0000 0000 0000 0000 0000 0000 0000 0000  ................
	0x0090:  0000 0000 0000 0000 0000 0000 0000 0000  ................
	0x00a0:  0000 0000 0000 0000 0000 0000 0000 0000  ................
	0x00b0:  0000 0000 0000 0000 0000 0000 0000 0000  ................
	0x00c0:  0000 0000 0000 0000 0000 0000 0000 0000  ................
	0x00d0:  0000 0000 0000 0000 0000 0000 0000 0000  ................
	0x00e0:  0000 0000 0000 0000 310c                 ........1.
10:58:23.918768 IP (tos 0x0, ttl 64, id 1361, offset 0, flags [DF], proto UDP (17), length 220)
    192.168.62.11.36589 > 192.168.62.31.10100: [bad udp cksum 0xfe54 -> 0xb0a2!] UDP, length 192
	0x0000:  a44c 6225 6011 001d f313 1c23 0800 4500  .Lb%`......#..E.
	0x0010:  00dc 0551 4000 4011 3745 c0a8 3e0b c0a8  ...Q@.@.7E..>...
	0x0020:  3e1f 8eed 2774 00c8 fe54 aaaa c000 050b  >...'t...T......
	0x0030:  2a00 0000 0000 0000 0000 0000 0000 0000  *...............
	0x0040:  4658 4431 2d4a 3030 3031 0000 0000 b1e4  FXD1-J0001......
	0x0050:  c1f7 b9f1 312d 31ba c50a 0000 0000 0000  ....1-1.........
	0x0060:  0000 1904 0f0a 3a18 0000 0000 0000 0000  ......:.........
	0x0070:  0000 0000 0000 0000 0000 0000 0000 0000  ................
	0x0080:  0000 0000 0000 0000 0000 0000 0000 0000  ................
	0x0090:  0000 0000 0000 0000 0000 0000 0000 0000  ................
	0x00a0:  0000 0000 0000 0000 0000 0000 0000 0000  ................
	0x00b0:  0000 0000 0000 0000 0000 0000 0000 0000  ................
	0x00c0:  0000 0000 0000 0000 0000 0000 0000 0000  ................
	0x00d0:  0000 0000 0000 0000 0000 0000 0000 0000  ................
	0x00e0:  0000 0000 0000 0000 300c                 ........0.
10:58:23.918971 IP (tos 0x0, ttl 64, id 63955, offset 0, flags [DF], proto UDP (17), length 220)
    192.168.62.11.35612 > 192.168.62.32.10100: [bad udp cksum 0xfe55 -> 0xb272!] UDP, length 192
	0x0000:  a44c 622e 5a2e 001d f313 1c23 0800 4500  .Lb.Z......#..E.
	0x0010:  00dc f9d3 4000 4011 42c1 c0a8 3e0b c0a8  ....@.@.B...>...
	0x0020:  3e20 8b1c 2774 00c8 fe55 aaaa c000 050b  >...'t...U......
	0x0030:  2a00 0000 0000 0000 0000 0000 0000 0000  *...............
	0x0040:  4658 4431 2d4a 3030 3031 0000 0000 b1e4  FXD1-J0001......
	0x0050:  c1f7 b9f1 312d 32ba c50a 0000 0000 0000  ....1-2.........
	0x0060:  0000 1904 0f0a 3a18 0000 0000 0000 0000  ......:.........
	0x0070:  0000 0000 0000 0000 0000 0000 0000 0000  ................
	0x0080:  0000 0000 0000 0000 0000 0000 0000 0000  ................
	0x0090:  0000 0000 0000 0000 0000 0000 0000 0000  ................
	0x00a0:  0000 0000 0000 0000 0000 0000 0000 0000  ................
	0x00b0:  0000 0000 0000 0000 0000 0000 0000 0000  ................
	0x00c0:  0000 0000 0000 0000 0000 0000 0000 0000  ................
	0x00d0:  0000 0000 0000 0000 0000 0000 0000 0000  ................
	0x00e0:  0000 0000 0000 0000 310c                 ........1.
10:58:23.919179 IP (tos 0x0, ttl 64, id 55431, offset 0, flags [DF], proto UDP (17), length 220)
    192.168.62.11.53067 > 192.168.62.33.10100: [bad udp cksum 0xfe56 -> 0x6c42!] UDP, length 192
	0x0000:  a44c 6231 2d5c 001d f313 1c23 0800 4500  .Lb1-\.....#..E.
	0x0010:  00dc d887 4000 4011 640c c0a8 3e0b c0a8  ....@.@.d...>...
	0x0020:  3e21 cf4b 2774 00c8 fe56 aaaa c000 050b  >!.K't...V......
	0x0030:  2a00 0000 0000 0000 0000 0000 0000 0000  *...............
	0x0040:  4658 4431 2d4a 3030 3031 0000 0000 b1e4  FXD1-J0001......
	0x0050:  c1f7 b9f1 312d 33ba c50a 0000 0000 0000  ....1-3.........
	0x0060:  0000 1904 0f0a 3a18 0000 0000 0000 0000  ......:.........
	0x0070:  0000 0000 0000 0000 0000 0000 0000 0000  ................
	0x0080:  0000 0000 0000 0000 0000 0000 0000 0000  ................
	0x0090:  0000 0000 0000 0000 0000 0000 0000 0000  ................
	0x00a0:  0000 0000 0000 0000 0000 0000 0000 0000  ................
	0x00b0:  0000 0000 0000 0000 0000 0000 0000 0000  ................
	0x00c0:  0000 0000 0000 0000 0000 0000 0000 0000  ................
	0x00d0:  0000 0000 0000 0000 0000 0000 0000 0000  ................
	0x00e0:  0000 0000 0000 0000 320c                 ........2.
10:58:23.919338 IP (tos 0x0, ttl 64, id 23939, offset 0, flags [DF], proto UDP (17), length 220)
    192.168.62.11.33495 > 192.168.62.34.10100: [bad udp cksum 0xfe57 -> 0xb6b5!] UDP, length 192
	0x0000:  a44c 622e 5a3a 001d f313 1c23 0800 4500  .Lb.Z:.....#..E.
	0x0010:  00dc 5d83 4000 4011 df0f c0a8 3e0b c0a8  ..].@.@.....>...
	0x0020:  3e22 82d7 2774 00c8 fe57 aaaa c000 050b  >"..'t...W......
	0x0030:  2a00 0000 0000 0000 0000 0000 0000 0000  *...............
	0x0040:  4658 4431 2d4a 3030 3031 0000 0000 b1e4  FXD1-J0001......
	0x0050:  c1f7 b9f1 312d 34ba c50a 0000 0000 0000  ....1-4.........
	0x0060:  0000 1904 0f0a 3a18 0000 0000 0000 0000  ......:.........
	0x0070:  0000 0000 0000 0000 0000 0000 0000 0000  ................
	0x0080:  0000 0000 0000 0000 0000 0000 0000 0000  ................
	0x0090:  0000 0000 0000 0000 0000 0000 0000 0000  ................
	0x00a0:  0000 0000 0000 0000 0000 0000 0000 0000  ................
	0x00b0:  0000 0000 0000 0000 0000 0000 0000 0000  ................
	0x00c0:  0000 0000 0000 0000 0000 0000 0000 0000  ................
	0x00d0:  0000 0000 0000 0000 0000 0000 0000 0000  ................
	0x00e0:  0000 0000 0000 0000 330c                 ........3.
10:58:24.996848 IP (tos 0x0, ttl 64, id 1623, offset 0, flags [DF], proto UDP (17), length 220)
    192.168.62.11.36589 > 192.168.62.31.10100: [bad udp cksum 0xfe54 -> 0xaca0!] UDP, length 192
	0x0000:  a44c 6225 6011 001d f313 1c23 0800 4500  .Lb%`......#..E.
	0x0010:  00dc 0657 4000 4011 363f c0a8 3e0b c0a8  ...W@.@.6?..>...
	0x0020:  3e1f 8eed 2774 00c8 fe54 aaaa c000 050b  >...'t...T......
	0x0030:  2b00 0000 0000 0000 0000 0000 0000 0000  +...............
	0x0040:  4658 4431 2d4a 3030 3031 0000 0000 b1e4  FXD1-J0001......
	0x0050:  c1f7 b9f1 312d 31ba c50a 0000 0000 0000  ....1-1.........
	0x0060:  0000 1904 0f0a 3a1a 0000 0000 0000 0000  ......:.........
	0x0070:  0000 0000 0000 0000 0000 0000 0000 0000  ................
	0x0080:  0000 0000 0000 0000 0000 0000 0000 0000  ................
	0x0090:  0000 0000 0000 0000 0000 0000 0000 0000  ................
	0x00a0:  0000 0000 0000 0000 0000 0000 0000 0000  ................
	0x00b0:  0000 0000 0000 0000 0000 0000 0000 0000  ................
	0x00c0:  0000 0000 0000 0000 0000 0000 0000 0000  ................
	0x00d0:  0000 0000 0000 0000 0000 0000 0000 0000  ................
	0x00e0:  0000 0000 0000 0000 330c                 ........3.
10:58:24.997082 IP (tos 0x0, ttl 64, id 63973, offset 0, flags [DF], proto UDP (17), length 220)
    192.168.62.11.35612 > 192.168.62.32.10100: [bad udp cksum 0xfe55 -> 0xae70!] UDP, length 192
	0x0000:  a44c 622e 5a2e 001d f313 1c23 0800 4500  .Lb.Z......#..E.
	0x0010:  00dc f9e5 4000 4011 42af c0a8 3e0b c0a8  ....@.@.B...>...
	0x0020:  3e20 8b1c 2774 00c8 fe55 aaaa c000 050b  >...'t...U......
	0x0030:  2b00 0000 0000 0000 0000 0000 0000 0000  +...............
	0x0040:  4658 4431 2d4a 3030 3031 0000 0000 b1e4  FXD1-J0001......
	0x0050:  c1f7 b9f1 312d 32ba c50a 0000 0000 0000  ....1-2.........
	0x0060:  0000 1904 0f0a 3a1a 0000 0000 0000 0000  ......:.........
	0x0070:  0000 0000 0000 0000 0000 0000 0000 0000  ................
	0x0080:  0000 0000 0000 0000 0000 0000 0000 0000  ................
	0x0090:  0000 0000 0000 0000 0000 0000 0000 0000  ................
	0x00a0:  0000 0000 0000 0000 0000 0000 0000 0000  ................
	0x00b0:  0000 0000 0000 0000 0000 0000 0000 0000  ................
	0x00c0:  0000 0000 0000 0000 0000 0000 0000 0000  ................
	0x00d0:  0000 0000 0000 0000 0000 0000 0000 0000  ................
	0x00e0:  0000 0000 0000 0000 340c                 ........4.
10:58:24.997302 IP (tos 0x0, ttl 64, id 55480, offset 0, flags [DF], proto UDP (17), length 220)
    192.168.62.11.53067 > 192.168.62.33.10100: [bad udp cksum 0xfe56 -> 0x6840!] UDP, length 192
	0x0000:  a44c 6231 2d5c 001d f313 1c23 0800 4500  .Lb1-\.....#..E.
	0x0010:  00dc d8b8 4000 4011 63db c0a8 3e0b c0a8  ....@.@.c...>...
	0x0020:  3e21 cf4b 2774 00c8 fe56 aaaa c000 050b  >!.K't...V......
	0x0030:  2b00 0000 0000 0000 0000 0000 0000 0000  +...............
	0x0040:  4658 4431 2d4a 3030 3031 0000 0000 b1e4  FXD1-J0001......
	0x0050:  c1f7 b9f1 312d 33ba c50a 0000 0000 0000  ....1-3.........
	0x0060:  0000 1904 0f0a 3a1a 0000 0000 0000 0000  ......:.........
	0x0070:  0000 0000 0000 0000 0000 0000 0000 0000  ................
	0x0080:  0000 0000 0000 0000 0000 0000 0000 0000  ................
	0x0090:  0000 0000 0000 0000 0000 0000 0000 0000  ................
	0x00a0:  0000 0000 0000 0000 0000 0000 0000 0000  ................
	0x00b0:  0000 0000 0000 0000 0000 0000 0000 0000  ................
	0x00c0:  0000 0000 0000 0000 0000 0000 0000 0000  ................
	0x00d0:  0000 0000 0000 0000 0000 0000 0000 0000  ................
	0x00e0:  0000 0000 0000 0000 350c                 ........5.
10:58:24.997527 IP (tos 0x0, ttl 64, id 23961, offset 0, flags [DF], proto UDP (17), length 220)
    192.168.62.11.33495 > 192.168.62.34.10100: [bad udp cksum 0xfe57 -> 0xb2b3!] UDP, length 192
	0x0000:  a44c 622e 5a3a 001d f313 1c23 0800 4500  .Lb.Z:.....#..E.
	0x0010:  00dc 5d99 4000 4011 def9 c0a8 3e0b c0a8  ..].@.@.....>...
	0x0020:  3e22 82d7 2774 00c8 fe57 aaaa c000 050b  >"..'t...W......
	0x0030:  2b00 0000 0000 0000 0000 0000 0000 0000  +...............
	0x0040:  4658 4431 2d4a 3030 3031 0000 0000 b1e4  FXD1-J0001......
	0x0050:  c1f7 b9f1 312d 34ba c50a 0000 0000 0000  ....1-4.........
	0x0060:  0000 1904 0f0a 3a1a 0000 0000 0000 0000  ......:.........
	0x0070:  0000 0000 0000 0000 0000 0000 0000 0000  ................
	0x0080:  0000 0000 0000 0000 0000 0000 0000 0000  ................
	0x0090:  0000 0000 0000 0000 0000 0000 0000 0000  ................
	0x00a0:  0000 0000 0000 0000 0000 0000 0000 0000  ................
	0x00b0:  0000 0000 0000 0000 0000 0000 0000 0000  ................
	0x00c0:  0000 0000 0000 0000 0000 0000 0000 0000  ................
	0x00d0:  0000 0000 0000 0000 0000 0000 0000 0000  ................
	0x00e0:  0000 0000 0000 0000 360c                 ........6.
10:58:26.077568 IP (tos 0x0, ttl 64, id 1683, offset 0, flags [DF], proto UDP (17), length 220)
    192.168.62.11.36589 > 192.168.62.31.10100: [bad udp cksum 0xfe54 -> 0xa99f!] UDP, length 192
	0x0000:  a44c 6225 6011 001d f313 1c23 0800 4500  .Lb%`......#..E.
	0x0010:  00dc 0693 4000 4011 3603 c0a8 3e0b c0a8  ....@.@.6...>...
	0x0020:  3e1f 8eed 2774 00c8 fe54 aaaa c000 050b  >...'t...T......
	0x0030:  2c00 0000 0000 0000 0000 0000 0000 0000  ,...............
	0x0040:  4658 4431 2d4a 3030 3031 0000 0000 b1e4  FXD1-J0001......
	0x0050:  c1f7 b9f1 312d 31ba c50a 0000 0000 0000  ....1-1.........
	0x0060:  0000 1904 0f0a 3a1b 0000 0000 0000 0000  ......:.........
	0x0070:  0000 0000 0000 0000 0000 0000 0000 0000  ................
	0x0080:  0000 0000 0000 0000 0000 0000 0000 0000  ................
	0x0090:  0000 0000 0000 0000 0000 0000 0000 0000  ................
	0x00a0:  0000 0000 0000 0000 0000 0000 0000 0000  ................
	0x00b0:  0000 0000 0000 0000 0000 0000 0000 0000  ................
	0x00c0:  0000 0000 0000 0000 0000 0000 0000 0000  ................
	0x00d0:  0000 0000 0000 0000 0000 0000 0000 0000  ................
	0x00e0:  0000 0000 0000 0000 350c                 ........5.
10:58:26.077752 IP (tos 0x0, ttl 64, id 64215, offset 0, flags [DF], proto UDP (17), length 220)
    192.168.62.11.35612 > 192.168.62.32.10100: [bad udp cksum 0xfe55 -> 0xab6f!] UDP, length 192
	0x0000:  a44c 622e 5a2e 001d f313 1c23 0800 4500  .Lb.Z......#..E.
	0x0010:  00dc fad7 4000 4011 41bd c0a8 3e0b c0a8  ....@.@.A...>...
	0x0020:  3e20 8b1c 2774 00c8 fe55 aaaa c000 050b  >...'t...U......
	0x0030:  2c00 0000 0000 0000 0000 0000 0000 0000  ,...............
	0x0040:  4658 4431 2d4a 3030 3031 0000 0000 b1e4  FXD1-J0001......
	0x0050:  c1f7 b9f1 312d 32ba c50a 0000 0000 0000  ....1-2.........
	0x0060:  0000 1904 0f0a 3a1b 0000 0000 0000 0000  ......:.........
	0x0070:  0000 0000 0000 0000 0000 0000 0000 0000  ................
	0x0080:  0000 0000 0000 0000 0000 0000 0000 0000  ................
	0x0090:  0000 0000 0000 0000 0000 0000 0000 0000  ................
	0x00a0:  0000 0000 0000 0000 0000 0000 0000 0000  ................
	0x00b0:  0000 0000 0000 0000 0000 0000 0000 0000  ................
	0x00c0:  0000 0000 0000 0000 0000 0000 0000 0000  ................
	0x00d0:  0000 0000 0000 0000 0000 0000 0000 0000  ................
	0x00e0:  0000 0000 0000 0000 360c                 ........6.
10:58:26.077911 IP (tos 0x0, ttl 64, id 55732, offset 0, flags [DF], proto UDP (17), length 220)
    192.168.62.11.53067 > 192.168.62.33.10100: [bad udp cksum 0xfe56 -> 0x653f!] UDP, length 192
	0x0000:  a44c 6231 2d5c 001d f313 1c23 0800 4500  .Lb1-\.....#..E.
	0x0010:  00dc d9b4 4000 4011 62df c0a8 3e0b c0a8  ....@.@.b...>...
	0x0020:  3e21 cf4b 2774 00c8 fe56 aaaa c000 050b  >!.K't...V......
	0x0030:  2c00 0000 0000 0000 0000 0000 0000 0000  ,...............
	0x0040:  4658 4431 2d4a 3030 3031 0000 0000 b1e4  FXD1-J0001......
	0x0050:  c1f7 b9f1 312d 33ba c50a 0000 0000 0000  ....1-3.........
	0x0060:  0000 1904 0f0a 3a1b 0000 0000 0000 0000  ......:.........
	0x0070:  0000 0000 0000 0000 0000 0000 0000 0000  ................
	0x0080:  0000 0000 0000 0000 0000 0000 0000 0000  ................
	0x0090:  0000 0000 0000 0000 0000 0000 0000 0000  ................
	0x00a0:  0000 0000 0000 0000 0000 0000 0000 0000  ................
	0x00b0:  0000 0000 0000 0000 0000 0000 0000 0000  ................
	0x00c0:  0000 0000 0000 0000 0000 0000 0000 0000  ................
	0x00d0:  0000 0000 0000 0000 0000 0000 0000 0000  ................
	0x00e0:  0000 0000 0000 0000 370c                 ........7.
10:58:26.078070 IP (tos 0x0, ttl 64, id 24155, offset 0, flags [DF], proto UDP (17), length 220)
    192.168.62.11.33495 > 192.168.62.34.10100: [bad udp cksum 0xfe57 -> 0xafb2!] UDP, length 192
	0x0000:  a44c 622e 5a3a 001d f313 1c23 0800 4500  .Lb.Z:.....#..E.
	0x0010:  00dc 5e5b 4000 4011 de37 c0a8 3e0b c0a8  ..^[@.@..7..>...
	0x0020:  3e22 82d7 2774 00c8 fe57 aaaa c000 050b  >"..'t...W......
	0x0030:  2c00 0000 0000 0000 0000 0000 0000 0000  ,...............
	0x0040:  4658 4431 2d4a 3030 3031 0000 0000 b1e4  FXD1-J0001......
	0x0050:  c1f7 b9f1 312d 34ba c50a 0000 0000 0000  ....1-4.........
	0x0060:  0000 1904 0f0a 3a1b 0000 0000 0000 0000  ......:.........
	0x0070:  0000 0000 0000 0000 0000 0000 0000 0000  ................
	0x0080:  0000 0000 0000 0000 0000 0000 0000 0000  ................
	0x0090:  0000 0000 0000 0000 0000 0000 0000 0000  ................
	0x00a0:  0000 0000 0000 0000 0000 0000 0000 0000  ................
	0x00b0:  0000 0000 0000 0000 0000 0000 0000 0000  ................
	0x00c0:  0000 0000 0000 0000 0000 0000 0000 0000  ................
	0x00d0:  0000 0000 0000 0000 0000 0000 0000 0000  ................
	0x00e0:  0000 0000 0000 0000 380c                 ........8.
10:58:27.132012 IP (tos 0x0, ttl 64, id 1729, offset 0, flags [DF], proto UDP (17), length 220)
    192.168.62.11.36589 > 192.168.62.31.10100: [bad udp cksum 0xfe54 -> 0xa79f!] UDP, length 192
	0x0000:  a44c 6225 6011 001d f313 1c23 0800 4500  .Lb%`......#..E.
	0x0010:  00dc 06c1 4000 4011 35d5 c0a8 3e0b c0a8  ....@.@.5...>...
	0x0020:  3e1f 8eed 2774 00c8 fe54 aaaa c000 050b  >...'t...T......
	0x0030:  2d00 0000 0000 0000 0000 0000 0000 0000  -...............
	0x0040:  4658 4431 2d4a 3030 3031 0000 0000 b1e4  FXD1-J0001......
	0x0050:  c1f7 b9f1 312d 31ba c50a 0000 0000 0000  ....1-1.........
	0x0060:  0000 1904 0f0a 3a1b 0000 0000 0000 0000  ......:.........
	0x0070:  0000 0000 0000 0000 0000 0000 0000 0000  ................
	0x0080:  0000 0000 0000 0000 0000 0000 0000 0000  ................
	0x0090:  0000 0000 0000 0000 0000 0000 0000 0000  ................
	0x00a0:  0000 0000 0000 0000 0000 0000 0000 0000  ................
	0x00b0:  0000 0000 0000 0000 0000 0000 0000 0000  ................
	0x00c0:  0000 0000 0000 0000 0000 0000 0000 0000  ................
	0x00d0:  0000 0000 0000 0000 0000 0000 0000 0000  ................
	0x00e0:  0000 0000 0000 0000 360c                 ........6.
10:58:27.132182 IP (tos 0x0, ttl 64, id 64363, offset 0, flags [DF], proto UDP (17), length 220)
    192.168.62.11.35612 > 192.168.62.32.10100: [bad udp cksum 0xfe55 -> 0xa96f!] UDP, length 192
	0x0000:  a44c 622e 5a2e 001d f313 1c23 0800 4500  .Lb.Z......#..E.
	0x0010:  00dc fb6b 4000 4011 4129 c0a8 3e0b c0a8  ...k@.@.A)..>...
	0x0020:  3e20 8b1c 2774 00c8 fe55 aaaa c000 050b  >...'t...U......
	0x0030:  2d00 0000 0000 0000 0000 0000 0000 0000  -...............
	0x0040:  4658 4431 2d4a 3030 3031 0000 0000 b1e4  FXD1-J0001......
	0x0050:  c1f7 b9f1 312d 32ba c50a 0000 0000 0000  ....1-2.........
	0x0060:  0000 1904 0f0a 3a1b 0000 0000 0000 0000  ......:.........
	0x0070:  0000 0000 0000 0000 0000 0000 0000 0000  ................
	0x0080:  0000 0000 0000 0000 0000 0000 0000 0000  ................
	0x0090:  0000 0000 0000 0000 0000 0000 0000 0000  ................
	0x00a0:  0000 0000 0000 0000 0000 0000 0000 0000  ................
	0x00b0:  0000 0000 0000 0000 0000 0000 0000 0000  ................
	0x00c0:  0000 0000 0000 0000 0000 0000 0000 0000  ................
	0x00d0:  0000 0000 0000 0000 0000 0000 0000 0000  ................
	0x00e0:  0000 0000 0000 0000 370c                 ........7.
10:58:27.132348 IP (tos 0x0, ttl 64, id 55741, offset 0, flags [DF], proto UDP (17), length 220)
    192.168.62.11.53067 > 192.168.62.33.10100: [bad udp cksum 0xfe56 -> 0x633f!] UDP, length 192
	0x0000:  a44c 6231 2d5c 001d f313 1c23 0800 4500  .Lb1-\.....#..E.
	0x0010:  00dc d9bd 4000 4011 62d6 c0a8 3e0b c0a8  ....@.@.b...>...
	0x0020:  3e21 cf4b 2774 00c8 fe56 aaaa c000 050b  >!.K't...V......
	0x0030:  2d00 0000 0000 0000 0000 0000 0000 0000  -...............
	0x0040:  4658 4431 2d4a 3030 3031 0000 0000 b1e4  FXD1-J0001......
	0x0050:  c1f7 b9f1 312d 33ba c50a 0000 0000 0000  ....1-3.........
	0x0060:  0000 1904 0f0a 3a1b 0000 0000 0000 0000  ......:.........
	0x0070:  0000 0000 0000 0000 0000 0000 0000 0000  ................
	0x0080:  0000 0000 0000 0000 0000 0000 0000 0000  ................
	0x0090:  0000 0000 0000 0000 0000 0000 0000 0000  ................
	0x00a0:  0000 0000 0000 0000 0000 0000 0000 0000  ................
	0x00b0:  0000 0000 0000 0000 0000 0000 0000 0000  ................
	0x00c0:  0000 0000 0000 0000 0000 0000 0000 0000  ................
	0x00d0:  0000 0000 0000 0000 0000 0000 0000 0000  ................
	0x00e0:  0000 0000 0000 0000 380c                 ........8.
10:58:27.132510 IP (tos 0x0, ttl 64, id 24369, offset 0, flags [DF], proto UDP (17), length 220)
    192.168.62.11.33495 > 192.168.62.34.10100: [bad udp cksum 0xfe57 -> 0xadb2!] UDP, length 192
	0x0000:  a44c 622e 5a3a 001d f313 1c23 0800 4500  .Lb.Z:.....#..E.
	0x0010:  00dc 5f31 4000 4011 dd61 c0a8 3e0b c0a8  .._1@.@..a..>...
	0x0020:  3e22 82d7 2774 00c8 fe57 aaaa c000 050b  >"..'t...W......
	0x0030:  2d00 0000 0000 0000 0000 0000 0000 0000  -...............
	0x0040:  4658 4431 2d4a 3030 3031 0000 0000 b1e4  FXD1-J0001......
	0x0050:  c1f7 b9f1 312d 34ba c50a 0000 0000 0000  ....1-4.........
	0x0060:  0000 1904 0f0a 3a1b 0000 0000 0000 0000  ......:.........
	0x0070:  0000 0000 0000 0000 0000 0000 0000 0000  ................
	0x0080:  0000 0000 0000 0000 0000 0000 0000 0000  ................
	0x0090:  0000 0000 0000 0000 0000 0000 0000 0000  ................
	0x00a0:  0000 0000 0000 0000 0000 0000 0000 0000  ................
	0x00b0:  0000 0000 0000 0000 0000 0000 0000 0000  ................
	0x00c0:  0000 0000 0000 0000 0000 0000 0000 0000  ................
	0x00d0:  0000 0000 0000 0000 0000 0000 0000 0000  ................
	0x00e0:  0000 0000 0000 0000 390c                 ........9.
10:58:28.182894 IP (tos 0x0, ttl 64, id 1861, offset 0, flags [DF], proto UDP (17), length 220)
    192.168.62.11.36589 > 192.168.62.31.10100: [bad udp cksum 0xfe54 -> 0xa49e!] UDP, length 192
	0x0000:  a44c 6225 6011 001d f313 1c23 0800 4500  .Lb%`......#..E.
	0x0010:  00dc 0745 4000 4011 3551 c0a8 3e0b c0a8  ...E@.@.5Q..>...
	0x0020:  3e1f 8eed 2774 00c8 fe54 aaaa c000 050b  >...'t...T......
	0x0030:  2e00 0000 0000 0000 0000 0000 0000 0000  ................
	0x0040:  4658 4431 2d4a 3030 3031 0000 0000 b1e4  FXD1-J0001......
	0x0050:  c1f7 b9f1 312d 31ba c50a 0000 0000 0000  ....1-1.........
	0x0060:  0000 1904 0f0a 3a1c 0000 0000 0000 0000  ......:.........
	0x0070:  0000 0000 0000 0000 0000 0000 0000 0000  ................
	0x0080:  0000 0000 0000 0000 0000 0000 0000 0000  ................
	0x0090:  0000 0000 0000 0000 0000 0000 0000 0000  ................
	0x00a0:  0000 0000 0000 0000 0000 0000 0000 0000  ................
	0x00b0:  0000 0000 0000 0000 0000 0000 0000 0000  ................
	0x00c0:  0000 0000 0000 0000 0000 0000 0000 0000  ................
	0x00d0:  0000 0000 0000 0000 0000 0000 0000 0000  ................
	0x00e0:  0000 0000 0000 0000 380c                 ........8.
10:58:28.183068 IP (tos 0x0, ttl 64, id 64444, offset 0, flags [DF], proto UDP (17), length 220)
    192.168.62.11.35612 > 192.168.62.32.10100: [bad udp cksum 0xfe55 -> 0xa66e!] UDP, length 192
	0x0000:  a44c 622e 5a2e 001d f313 1c23 0800 4500  .Lb.Z......#..E.
	0x0010:  00dc fbbc 4000 4011 40d8 c0a8 3e0b c0a8  ....@.@.@...>...
	0x0020:  3e20 8b1c 2774 00c8 fe55 aaaa c000 050b  >...'t...U......
	0x0030:  2e00 0000 0000 0000 0000 0000 0000 0000  ................
	0x0040:  4658 4431 2d4a 3030 3031 0000 0000 b1e4  FXD1-J0001......
	0x0050:  c1f7 b9f1 312d 32ba c50a 0000 0000 0000  ....1-2.........
	0x0060:  0000 1904 0f0a 3a1c 0000 0000 0000 0000  ......:.........
	0x0070:  0000 0000 0000 0000 0000 0000 0000 0000  ................
	0x0080:  0000 0000 0000 0000 0000 0000 0000 0000  ................
	0x0090:  0000 0000 0000 0000 0000 0000 0000 0000  ................
	0x00a0:  0000 0000 0000 0000 0000 0000 0000 0000  ................
	0x00b0:  0000 0000 0000 0000 0000 0000 0000 0000  ................
	0x00c0:  0000 0000 0000 0000 0000 0000 0000 0000  ................
	0x00d0:  0000 0000 0000 0000 0000 0000 0000 0000  ................
	0x00e0:  0000 0000 0000 0000 390c                 ........9.
10:58:28.183242 IP (tos 0x0, ttl 64, id 55814, offset 0, flags [DF], proto UDP (17), length 220)
    192.168.62.11.53067 > 192.168.62.33.10100: [bad udp cksum 0xfe56 -> 0x603e!] UDP, length 192
	0x0000:  a44c 6231 2d5c 001d f313 1c23 0800 4500  .Lb1-\.....#..E.
	0x0010:  00dc da06 4000 4011 628d c0a8 3e0b c0a8  ....@.@.b...>...
	0x0020:  3e21 cf4b 2774 00c8 fe56 aaaa c000 050b  >!.K't...V......
	0x0030:  2e00 0000 0000 0000 0000 0000 0000 0000  ................
	0x0040:  4658 4431 2d4a 3030 3031 0000 0000 b1e4  FXD1-J0001......
	0x0050:  c1f7 b9f1 312d 33ba c50a 0000 0000 0000  ....1-3.........
	0x0060:  0000 1904 0f0a 3a1c 0000 0000 0000 0000  ......:.........
	0x0070:  0000 0000 0000 0000 0000 0000 0000 0000  ................
	0x0080:  0000 0000 0000 0000 0000 0000 0000 0000  ................
	0x0090:  0000 0000 0000 0000 0000 0000 0000 0000  ................
	0x00a0:  0000 0000 0000 0000 0000 0000 0000 0000  ................
	0x00b0:  0000 0000 0000 0000 0000 0000 0000 0000  ................
	0x00c0:  0000 0000 0000 0000 0000 0000 0000 0000  ................
	0x00d0:  0000 0000 0000 0000 0000 0000 0000 0000  ................
	0x00e0:  0000 0000 0000 0000 3a0c                 ........:.
10:58:28.183398 IP (tos 0x0, ttl 64, id 24594, offset 0, flags [DF], proto UDP (17), length 220)
    192.168.62.11.33495 > 192.168.62.34.10100: [bad udp cksum 0xfe57 -> 0xaab1!] UDP, length 192
	0x0000:  a44c 622e 5a3a 001d f313 1c23 0800 4500  .Lb.Z:.....#..E.
	0x0010:  00dc 6012 4000 4011 dc80 c0a8 3e0b c0a8  ..`.@.@.....>...
	0x0020:  3e22 82d7 2774 00c8 fe57 aaaa c000 050b  >"..'t...W......
	0x0030:  2e00 0000 0000 0000 0000 0000 0000 0000  ................
	0x0040:  4658 4431 2d4a 3030 3031 0000 0000 b1e4  FXD1-J0001......
	0x0050:  c1f7 b9f1 312d 34ba c50a 0000 0000 0000  ....1-4.........
	0x0060:  0000 1904 0f0a 3a1c 0000 0000 0000 0000  ......:.........
	0x0070:  0000 0000 0000 0000 0000 0000 0000 0000  ................
	0x0080:  0000 0000 0000 0000 0000 0000 0000 0000  ................
	0x0090:  0000 0000 0000 0000 0000 0000 0000 0000  ................
	0x00a0:  0000 0000 0000 0000 0000 0000 0000 0000  ................
	0x00b0:  0000 0000 0000 0000 0000 0000 0000 0000  ................
	0x00c0:  0000 0000 0000 0000 0000 0000 0000 0000  ................
	0x00d0:  0000 0000 0000 0000 0000 0000 0000 0000  ................
	0x00e0:  0000 0000 0000 0000 3b0c                 ........;.
10:58:29.236279 IP (tos 0x0, ttl 64, id 2047, offset 0, flags [DF], proto UDP (17), length 220)
    192.168.62.11.36589 > 192.168.62.31.10100: [bad udp cksum 0xfe54 -> 0xa09c!] UDP, length 192
	0x0000:  a44c 6225 6011 001d f313 1c23 0800 4500  .Lb%`......#..E.
	0x0010:  00dc 07ff 4000 4011 3497 c0a8 3e0b c0a8  ....@.@.4...>...
	0x0020:  3e1f 8eed 2774 00c8 fe54 aaaa c000 050b  >...'t...T......
	0x0030:  2f00 0000 0000 0000 0000 0000 0000 0000  /...............
	0x0040:  4658 4431 2d4a 3030 3031 0000 0000 b1e4  FXD1-J0001......
	0x0050:  c1f7 b9f1 312d 31ba c50a 0000 0000 0000  ....1-1.........
	0x0060:  0000 1904 0f0a 3a1e 0000 0000 0000 0000  ......:.........
	0x0070:  0000 0000 0000 0000 0000 0000 0000 0000  ................
	0x0080:  0000 0000 0000 0000 0000 0000 0000 0000  ................
	0x0090:  0000 0000 0000 0000 0000 0000 0000 0000  ................
	0x00a0:  0000 0000 0000 0000 0000 0000 0000 0000  ................
	0x00b0:  0000 0000 0000 0000 0000 0000 0000 0000  ................
	0x00c0:  0000 0000 0000 0000 0000 0000 0000 0000  ................
	0x00d0:  0000 0000 0000 0000 0000 0000 0000 0000  ................
	0x00e0:  0000 0000 0000 0000 3b0c                 ........;.
10:58:29.236453 IP (tos 0x0, ttl 64, id 64583, offset 0, flags [DF], proto UDP (17), length 220)
    192.168.62.11.35612 > 192.168.62.32.10100: [bad udp cksum 0xfe55 -> 0xa26c!] UDP, length 192
	0x0000:  a44c 622e 5a2e 001d f313 1c23 0800 4500  .Lb.Z......#..E.
	0x0010:  00dc fc47 4000 4011 404d c0a8 3e0b c0a8  ...G@.@.@M..>...
	0x0020:  3e20 8b1c 2774 00c8 fe55 aaaa c000 050b  >...'t...U......
	0x0030:  2f00 0000 0000 0000 0000 0000 0000 0000  /...............
	0x0040:  4658 4431 2d4a 3030 3031 0000 0000 b1e4  FXD1-J0001......
	0x0050:  c1f7 b9f1 312d 32ba c50a 0000 0000 0000  ....1-2.........
	0x0060:  0000 1904 0f0a 3a1e 0000 0000 0000 0000  ......:.........
	0x0070:  0000 0000 0000 0000 0000 0000 0000 0000  ................
	0x0080:  0000 0000 0000 0000 0000 0000 0000 0000  ................
	0x0090:  0000 0000 0000 0000 0000 0000 0000 0000  ................
	0x00a0:  0000 0000 0000 0000 0000 0000 0000 0000  ................
	0x00b0:  0000 0000 0000 0000 0000 0000 0000 0000  ................
	0x00c0:  0000 0000 0000 0000 0000 0000 0000 0000  ................
	0x00d0:  0000 0000 0000 0000 0000 0000 0000 0000  ................
	0x00e0:  0000 0000 0000 0000 3c0c                 ........<.
10:58:29.236621 IP (tos 0x0, ttl 64, id 55873, offset 0, flags [DF], proto UDP (17), length 220)
    192.168.62.11.53067 > 192.168.62.33.10100: [bad udp cksum 0xfe56 -> 0x5c3c!] UDP, length 192
	0x0000:  a44c 6231 2d5c 001d f313 1c23 0800 4500  .Lb1-\.....#..E.
	0x0010:  00dc da41 4000 4011 6252 c0a8 3e0b c0a8  ...A@.@.bR..>...
	0x0020:  3e21 cf4b 2774 00c8 fe56 aaaa c000 050b  >!.K't...V......
	0x0030:  2f00 0000 0000 0000 0000 0000 0000 0000  /...............
	0x0040:  4658 4431 2d4a 3030 3031 0000 0000 b1e4  FXD1-J0001......
	0x0050:  c1f7 b9f1 312d 33ba c50a 0000 0000 0000  ....1-3.........
	0x0060:  0000 1904 0f0a 3a1e 0000 0000 0000 0000  ......:.........
	0x0070:  0000 0000 0000 0000 0000 0000 0000 0000  ................
	0x0080:  0000 0000 0000 0000 0000 0000 0000 0000  ................
	0x0090:  0000 0000 0000 0000 0000 0000 0000 0000  ................
	0x00a0:  0000 0000 0000 0000 0000 0000 0000 0000  ................
	0x00b0:  0000 0000 0000 0000 0000 0000 0000 0000  ................
	0x00c0:  0000 0000 0000 0000 0000 0000 0000 0000  ................
	0x00d0:  0000 0000 0000 0000 0000 0000 0000 0000  ................
	0x00e0:  0000 0000 0000 0000 3d0c                 ........=.
10:58:29.236890 IP (tos 0x0, ttl 64, id 24655, offset 0, flags [DF], proto UDP (17), length 220)
    192.168.62.11.33495 > 192.168.62.34.10100: [bad udp cksum 0xfe57 -> 0xa6af!] UDP, length 192
	0x0000:  a44c 622e 5a3a 001d f313 1c23 0800 4500  .Lb.Z:.....#..E.
	0x0010:  00dc 604f 4000 4011 dc43 c0a8 3e0b c0a8  ..`O@.@..C..>...
	0x0020:  3e22 82d7 2774 00c8 fe57 aaaa c000 050b  >"..'t...W......
	0x0030:  2f00 0000 0000 0000 0000 0000 0000 0000  /...............
	0x0040:  4658 4431 2d4a 3030 3031 0000 0000 b1e4  FXD1-J0001......
	0x0050:  c1f7 b9f1 312d 34ba c50a 0000 0000 0000  ....1-4.........
	0x0060:  0000 1904 0f0a 3a1e 0000 0000 0000 0000  ......:.........
	0x0070:  0000 0000 0000 0000 0000 0000 0000 0000  ................
	0x0080:  0000 0000 0000 0000 0000 0000 0000 0000  ................
	0x0090:  0000 0000 0000 0000 0000 0000 0000 0000  ................
	0x00a0:  0000 0000 0000 0000 0000 0000 0000 0000  ................
	0x00b0:  0000 0000 0000 0000 0000 0000 0000 0000  ................
	0x00c0:  0000 0000 0000 0000 0000 0000 0000 0000  ................
	0x00d0:  0000 0000 0000 0000 0000 0000 0000 0000  ................
	0x00e0:  0000 0000 0000 0000 3e0c                 ........>.
10:58:30.306305 IP (tos 0x0, ttl 64, id 2175, offset 0, flags [DF], proto UDP (17), length 220)
    192.168.62.11.36589 > 192.168.62.31.10100: [bad udp cksum 0xfe54 -> 0x9d9b!] UDP, length 192
	0x0000:  a44c 6225 6011 001d f313 1c23 0800 4500  .Lb%`......#..E.
	0x0010:  00dc 087f 4000 4011 3417 c0a8 3e0b c0a8  ....@.@.4...>...
	0x0020:  3e1f 8eed 2774 00c8 fe54 aaaa c000 050b  >...'t...T......
	0x0030:  3000 0000 0000 0000 0000 0000 0000 0000  0...............
	0x0040:  4658 4431 2d4a 3030 3031 0000 0000 b1e4  FXD1-J0001......
	0x0050:  c1f7 b9f1 312d 31ba c50a 0000 0000 0000  ....1-1.........
	0x0060:  0000 1904 0f0a 3a1f 0000 0000 0000 0000  ......:.........
	0x0070:  0000 0000 0000 0000 0000 0000 0000 0000  ................
	0x0080:  0000 0000 0000 0000 0000 0000 0000 0000  ................
	0x0090:  0000 0000 0000 0000 0000 0000 0000 0000  ................
	0x00a0:  0000 0000 0000 0000 0000 0000 0000 0000  ................
	0x00b0:  0000 0000 0000 0000 0000 0000 0000 0000  ................
	0x00c0:  0000 0000 0000 0000 0000 0000 0000 0000  ................
	0x00d0:  0000 0000 0000 0000 0000 0000 0000 0000  ................
	0x00e0:  0000 0000 0000 0000 3d0c                 ........=.
10:58:30.306481 IP (tos 0x0, ttl 64, id 64666, offset 0, flags [DF], proto UDP (17), length 220)
    192.168.62.11.35612 > 192.168.62.32.10100: [bad udp cksum 0xfe55 -> 0x9f6b!] UDP, length 192
	0x0000:  a44c 622e 5a2e 001d f313 1c23 0800 4500  .Lb.Z......#..E.
	0x0010:  00dc fc9a 4000 4011 3ffa c0a8 3e0b c0a8  ....@.@.?...>...
	0x0020:  3e20 8b1c 2774 00c8 fe55 aaaa c000 050b  >...'t...U......
	0x0030:  3000 0000 0000 0000 0000 0000 0000 0000  0...............
	0x0040:  4658 4431 2d4a 3030 3031 0000 0000 b1e4  FXD1-J0001......
	0x0050:  c1f7 b9f1 312d 32ba c50a 0000 0000 0000  ....1-2.........
	0x0060:  0000 1904 0f0a 3a1f 0000 0000 0000 0000  ......:.........
	0x0070:  0000 0000 0000 0000 0000 0000 0000 0000  ................
	0x0080:  0000 0000 0000 0000 0000 0000 0000 0000  ................
	0x0090:  0000 0000 0000 0000 0000 0000 0000 0000  ................
	0x00a0:  0000 0000 0000 0000 0000 0000 0000 0000  ................
	0x00b0:  0000 0000 0000 0000 0000 0000 0000 0000  ................
	0x00c0:  0000 0000 0000 0000 0000 0000 0000 0000  ................
	0x00d0:  0000 0000 0000 0000 0000 0000 0000 0000  ................
	0x00e0:  0000 0000 0000 0000 3e0c                 ........>.
10:58:30.306641 IP (tos 0x0, ttl 64, id 55892, offset 0, flags [DF], proto UDP (17), length 220)
    192.168.62.11.53067 > 192.168.62.33.10100: [bad udp cksum 0xfe56 -> 0x593b!] UDP, length 192
	0x0000:  a44c 6231 2d5c 001d f313 1c23 0800 4500  .Lb1-\.....#..E.
	0x0010:  00dc da54 4000 4011 623f c0a8 3e0b c0a8  ...T@.@.b?..>...
	0x0020:  3e21 cf4b 2774 00c8 fe56 aaaa c000 050b  >!.K't...V......
	0x0030:  3000 0000 0000 0000 0000 0000 0000 0000  0...............
	0x0040:  4658 4431 2d4a 3030 3031 0000 0000 b1e4  FXD1-J0001......
	0x0050:  c1f7 b9f1 312d 33ba c50a 0000 0000 0000  ....1-3.........
	0x0060:  0000 1904 0f0a 3a1f 0000 0000 0000 0000  ......:.........
	0x0070:  0000 0000 0000 0000 0000 0000 0000 0000  ................
	0x0080:  0000 0000 0000 0000 0000 0000 0000 0000  ................
	0x0090:  0000 0000 0000 0000 0000 0000 0000 0000  ................
	0x00a0:  0000 0000 0000 0000 0000 0000 0000 0000  ................
	0x00b0:  0000 0000 0000 0000 0000 0000 0000 0000  ................
	0x00c0:  0000 0000 0000 0000 0000 0000 0000 0000  ................
	0x00d0:  0000 0000 0000 0000 0000 0000 0000 0000  ................
	0x00e0:  0000 0000 0000 0000 3f0c                 ........?.
10:58:30.306950 IP (tos 0x0, ttl 64, id 24668, offset 0, flags [DF], proto UDP (17), length 220)
    192.168.62.11.33495 > 192.168.62.34.10100: [bad udp cksum 0xfe57 -> 0xa3ae!] UDP, length 192
	0x0000:  a44c 622e 5a3a 001d f313 1c23 0800 4500  .Lb.Z:.....#..E.
	0x0010:  00dc 605c 4000 4011 dc36 c0a8 3e0b c0a8  ..`\@.@..6..>...
	0x0020:  3e22 82d7 2774 00c8 fe57 aaaa c000 050b  >"..'t...W......
	0x0030:  3000 0000 0000 0000 0000 0000 0000 0000  0...............
	0x0040:  4658 4431 2d4a 3030 3031 0000 0000 b1e4  FXD1-J0001......
	0x0050:  c1f7 b9f1 312d 34ba c50a 0000 0000 0000  ....1-4.........
	0x0060:  0000 1904 0f0a 3a1f 0000 0000 0000 0000  ......:.........
	0x0070:  0000 0000 0000 0000 0000 0000 0000 0000  ................
	0x0080:  0000 0000 0000 0000 0000 0000 0000 0000  ................
	0x0090:  0000 0000 0000 0000 0000 0000 0000 0000  ................
	0x00a0:  0000 0000 0000 0000 0000 0000 0000 0000  ................
	0x00b0:  0000 0000 0000 0000 0000 0000 0000 0000  ................
	0x00c0:  0000 0000 0000 0000 0000 0000 0000 0000  ................
	0x00d0:  0000 0000 0000 0000 0000 0000 0000 0000  ................
	0x00e0:  0000 0000 0000 0000 400c                 ........@.
10:58:31.344254 IP (tos 0x0, ttl 64, id 2355, offset 0, flags [DF], proto UDP (17), length 220)
    192.168.62.11.36589 > 192.168.62.31.10100: [bad udp cksum 0xfe54 -> 0x9b9b!] UDP, length 192
	0x0000:  a44c 6225 6011 001d f313 1c23 0800 4500  .Lb%`......#..E.
	0x0010:  00dc 0933 4000 4011 3363 c0a8 3e0b c0a8  ...3@.@.3c..>...
	0x0020:  3e1f 8eed 2774 00c8 fe54 aaaa c000 050b  >...'t...T......
	0x0030:  3100 0000 0000 0000 0000 0000 0000 0000  1...............
	0x0040:  4658 4431 2d4a 3030 3031 0000 0000 b1e4  FXD1-J0001......
	0x0050:  c1f7 b9f1 312d 31ba c50a 0000 0000 0000  ....1-1.........
	0x0060:  0000 1904 0f0a 3a1f 0000 0000 0000 0000  ......:.........
	0x0070:  0000 0000 0000 0000 0000 0000 0000 0000  ................
	0x0080:  0000 0000 0000 0000 0000 0000 0000 0000  ................
	0x0090:  0000 0000 0000 0000 0000 0000 0000 0000  ................
	0x00a0:  0000 0000 0000 0000 0000 0000 0000 0000  ................
	0x00b0:  0000 0000 0000 0000 0000 0000 0000 0000  ................
	0x00c0:  0000 0000 0000 0000 0000 0000 0000 0000  ................
	0x00d0:  0000 0000 0000 0000 0000 0000 0000 0000  ................
	0x00e0:  0000 0000 0000 0000 3e0c                 ........>.
10:58:31.344430 IP (tos 0x0, ttl 64, id 64696, offset 0, flags [DF], proto UDP (17), length 220)
    192.168.62.11.35612 > 192.168.62.32.10100: [bad udp cksum 0xfe55 -> 0x9d6b!] UDP, length 192
	0x0000:  a44c 622e 5a2e 001d f313 1c23 0800 4500  .Lb.Z......#..E.
	0x0010:  00dc fcb8 4000 4011 3fdc c0a8 3e0b c0a8  ....@.@.?...>...
	0x0020:  3e20 8b1c 2774 00c8 fe55 aaaa c000 050b  >...'t...U......
	0x0030:  3100 0000 0000 0000 0000 0000 0000 0000  1...............
	0x0040:  4658 4431 2d4a 3030 3031 0000 0000 b1e4  FXD1-J0001......
	0x0050:  c1f7 b9f1 312d 32ba c50a 0000 0000 0000  ....1-2.........
	0x0060:  0000 1904 0f0a 3a1f 0000 0000 0000 0000  ......:.........
	0x0070:  0000 0000 0000 0000 0000 0000 0000 0000  ................
	0x0080:  0000 0000 0000 0000 0000 0000 0000 0000  ................
	0x0090:  0000 0000 0000 0000 0000 0000 0000 0000  ................
	0x00a0:  0000 0000 0000 0000 0000 0000 0000 0000  ................
	0x00b0:  0000 0000 0000 0000 0000 0000 0000 0000  ................
	0x00c0:  0000 0000 0000 0000 0000 0000 0000 0000  ................
	0x00d0:  0000 0000 0000 0000 0000 0000 0000 0000  ................
	0x00e0:  0000 0000 0000 0000 3f0c                 ........?.
10:58:31.344580 IP (tos 0x0, ttl 64, id 55971, offset 0, flags [DF], proto UDP (17), length 220)
    192.168.62.11.53067 > 192.168.62.33.10100: [bad udp cksum 0xfe56 -> 0x573b!] UDP, length 192
	0x0000:  a44c 6231 2d5c 001d f313 1c23 0800 4500  .Lb1-\.....#..E.
	0x0010:  00dc daa3 4000 4011 61f0 c0a8 3e0b c0a8  ....@.@.a...>...
	0x0020:  3e21 cf4b 2774 00c8 fe56 aaaa c000 050b  >!.K't...V......
	0x0030:  3100 0000 0000 0000 0000 0000 0000 0000  1...............
	0x0040:  4658 4431 2d4a 3030 3031 0000 0000 b1e4  FXD1-J0001......
	0x0050:  c1f7 b9f1 312d 33ba c50a 0000 0000 0000  ....1-3.........
	0x0060:  0000 1904 0f0a 3a1f 0000 0000 0000 0000  ......:.........
	0x0070:  0000 0000 0000 0000 0000 0000 0000 0000  ................
	0x0080:  0000 0000 0000 0000 0000 0000 0000 0000  ................
	0x0090:  0000 0000 0000 0000 0000 0000 0000 0000  ................
	0x00a0:  0000 0000 0000 0000 0000 0000 0000 0000  ................
	0x00b0:  0000 0000 0000 0000 0000 0000 0000 0000  ................
	0x00c0:  0000 0000 0000 0000 0000 0000 0000 0000  ................
	0x00d0:  0000 0000 0000 0000 0000 0000 0000 0000  ................
	0x00e0:  0000 0000 0000 0000 400c                 ........@.
10:58:31.344746 IP (tos 0x0, ttl 64, id 24747, offset 0, flags [DF], proto UDP (17), length 220)
    192.168.62.11.33495 > 192.168.62.34.10100: [bad udp cksum 0xfe57 -> 0xa1ae!] UDP, length 192
	0x0000:  a44c 622e 5a3a 001d f313 1c23 0800 4500  .Lb.Z:.....#..E.
	0x0010:  00dc 60ab 4000 4011 dbe7 c0a8 3e0b c0a8  ..`.@.@.....>...
	0x0020:  3e22 82d7 2774 00c8 fe57 aaaa c000 050b  >"..'t...W......
	0x0030:  3100 0000 0000 0000 0000 0000 0000 0000  1...............
	0x0040:  4658 4431 2d4a 3030 3031 0000 0000 b1e4  FXD1-J0001......
	0x0050:  c1f7 b9f1 312d 34ba c50a 0000 0000 0000  ....1-4.........
	0x0060:  0000 1904 0f0a 3a1f 0000 0000 0000 0000  ......:.........
	0x0070:  0000 0000 0000 0000 0000 0000 0000 0000  ................
	0x0080:  0000 0000 0000 0000 0000 0000 0000 0000  ................
	0x0090:  0000 0000 0000 0000 0000 0000 0000 0000  ................
	0x00a0:  0000 0000 0000 0000 0000 0000 0000 0000  ................
	0x00b0:  0000 0000 0000 0000 0000 0000 0000 0000  ................
	0x00c0:  0000 0000 0000 0000 0000 0000 0000 0000  ................
	0x00d0:  0000 0000 0000 0000 0000 0000 0000 0000  ................
	0x00e0:  0000 0000 0000 0000 410c                 ........A.
10:58:32.383698 IP (tos 0x0, ttl 64, id 2580, offset 0, flags [DF], proto UDP (17), length 220)
    192.168.62.11.36589 > 192.168.62.31.10100: [bad udp cksum 0xfe54 -> 0x989a!] UDP, length 192
	0x0000:  a44c 6225 6011 001d f313 1c23 0800 4500  .Lb%`......#..E.
	0x0010:  00dc 0a14 4000 4011 3282 c0a8 3e0b c0a8  ....@.@.2...>...
	0x0020:  3e1f 8eed 2774 00c8 fe54 aaaa c000 050b  >...'t...T......
	0x0030:  3200 0000 0000 0000 0000 0000 0000 0000  2...............
	0x0040:  4658 4431 2d4a 3030 3031 0000 0000 b1e4  FXD1-J0001......
	0x0050:  c1f7 b9f1 312d 31ba c50a 0000 0000 0000  ....1-1.........
	0x0060:  0000 1904 0f0a 3a20 0000 0000 0000 0000  ......:.........
	0x0070:  0000 0000 0000 0000 0000 0000 0000 0000  ................
	0x0080:  0000 0000 0000 0000 0000 0000 0000 0000  ................
	0x0090:  0000 0000 0000 0000 0000 0000 0000 0000  ................
	0x00a0:  0000 0000 0000 0000 0000 0000 0000 0000  ................
	0x00b0:  0000 0000 0000 0000 0000 0000 0000 0000  ................
	0x00c0:  0000 0000 0000 0000 0000 0000 0000 0000  ................
	0x00d0:  0000 0000 0000 0000 0000 0000 0000 0000  ................
	0x00e0:  0000 0000 0000 0000 400c                 ........@.
10:58:32.383885 IP (tos 0x0, ttl 64, id 64765, offset 0, flags [DF], proto UDP (17), length 220)
    192.168.62.11.35612 > 192.168.62.32.10100: [bad udp cksum 0xfe55 -> 0x9a6a!] UDP, length 192
	0x0000:  a44c 622e 5a2e 001d f313 1c23 0800 4500  .Lb.Z......#..E.
	0x0010:  00dc fcfd 4000 4011 3f97 c0a8 3e0b c0a8  ....@.@.?...>...
	0x0020:  3e20 8b1c 2774 00c8 fe55 aaaa c000 050b  >...'t...U......
	0x0030:  3200 0000 0000 0000 0000 0000 0000 0000  2...............
	0x0040:  4658 4431 2d4a 3030 3031 0000 0000 b1e4  FXD1-J0001......
	0x0050:  c1f7 b9f1 312d 32ba c50a 0000 0000 0000  ....1-2.........
	0x0060:  0000 1904 0f0a 3a20 0000 0000 0000 0000  ......:.........
	0x0070:  0000 0000 0000 0000 0000 0000 0000 0000  ................
	0x0080:  0000 0000 0000 0000 0000 0000 0000 0000  ................
	0x0090:  0000 0000 0000 0000 0000 0000 0000 0000  ................
	0x00a0:  0000 0000 0000 0000 0000 0000 0000 0000  ................
	0x00b0:  0000 0000 0000 0000 0000 0000 0000 0000  ................
	0x00c0:  0000 0000 0000 0000 0000 0000 0000 0000  ................
	0x00d0:  0000 0000 0000 0000 0000 0000 0000 0000  ................
	0x00e0:  0000 0000 0000 0000 410c                 ........A.
10:58:32.384043 IP (tos 0x0, ttl 64, id 56163, offset 0, flags [DF], proto UDP (17), length 220)
    192.168.62.11.53067 > 192.168.62.33.10100: [bad udp cksum 0xfe56 -> 0x543a!] UDP, length 192
	0x0000:  a44c 6231 2d5c 001d f313 1c23 0800 4500  .Lb1-\.....#..E.
	0x0010:  00dc db63 4000 4011 6130 c0a8 3e0b c0a8  ...c@.@.a0..>...
	0x0020:  3e21 cf4b 2774 00c8 fe56 aaaa c000 050b  >!.K't...V......
	0x0030:  3200 0000 0000 0000 0000 0000 0000 0000  2...............
	0x0040:  4658 4431 2d4a 3030 3031 0000 0000 b1e4  FXD1-J0001......
	0x0050:  c1f7 b9f1 312d 33ba c50a 0000 0000 0000  ....1-3.........
	0x0060:  0000 1904 0f0a 3a20 0000 0000 0000 0000  ......:.........
	0x0070:  0000 0000 0000 0000 0000 0000 0000 0000  ................
	0x0080:  0000 0000 0000 0000 0000 0000 0000 0000  ................
	0x0090:  0000 0000 0000 0000 0000 0000 0000 0000  ................
	0x00a0:  0000 0000 0000 0000 0000 0000 0000 0000  ................
	0x00b0:  0000 0000 0000 0000 0000 0000 0000 0000  ................
	0x00c0:  0000 0000 0000 0000 0000 0000 0000 0000  ................
	0x00d0:  0000 0000 0000 0000 0000 0000 0000 0000  ................
	0x00e0:  0000 0000 0000 0000 420c                 ........B.
10:58:32.384192 IP (tos 0x0, ttl 64, id 25003, offset 0, flags [DF], proto UDP (17), length 220)
    192.168.62.11.33495 > 192.168.62.34.10100: [bad udp cksum 0xfe57 -> 0x9ead!] UDP, length 192
	0x0000:  a44c 622e 5a3a 001d f313 1c23 0800 4500  .Lb.Z:.....#..E.
	0x0010:  00dc 61ab 4000 4011 dae7 c0a8 3e0b c0a8  ..a.@.@.....>...
	0x0020:  3e22 82d7 2774 00c8 fe57 aaaa c000 050b  >"..'t...W......
	0x0030:  3200 0000 0000 0000 0000 0000 0000 0000  2...............
	0x0040:  4658 4431 2d4a 3030 3031 0000 0000 b1e4  FXD1-J0001......
	0x0050:  c1f7 b9f1 312d 34ba c50a 0000 0000 0000  ....1-4.........
	0x0060:  0000 1904 0f0a 3a20 0000 0000 0000 0000  ......:.........
	0x0070:  0000 0000 0000 0000 0000 0000 0000 0000  ................
	0x0080:  0000 0000 0000 0000 0000 0000 0000 0000  ................
	0x0090:  0000 0000 0000 0000 0000 0000 0000 0000  ................
	0x00a0:  0000 0000 0000 0000 0000 0000 0000 0000  ................
	0x00b0:  0000 0000 0000 0000 0000 0000 0000 0000  ................
	0x00c0:  0000 0000 0000 0000 0000 0000 0000 0000  ................
	0x00d0:  0000 0000 0000 0000 0000 0000 0000 0000  ................
	0x00e0:  0000 0000 0000 0000 430c                 ........C.
10:58:33.423484 IP (tos 0x0, ttl 64, id 2617, offset 0, flags [DF], proto UDP (17), length 220)
    192.168.62.11.36589 > 192.168.62.31.10100: [bad udp cksum 0xfe54 -> 0x9498!] UDP, length 192
	0x0000:  a44c 6225 6011 001d f313 1c23 0800 4500  .Lb%`......#..E.
	0x0010:  00dc 0a39 4000 4011 325d c0a8 3e0b c0a8  ...9@.@.2]..>...
	0x0020:  3e1f 8eed 2774 00c8 fe54 aaaa c000 050b  >...'t...T......
	0x0030:  3300 0000 0000 0000 0000 0000 0000 0000  3...............
	0x0040:  4658 4431 2d4a 3030 3031 0000 0000 b1e4  FXD1-J0001......
	0x0050:  c1f7 b9f1 312d 31ba c50a 0000 0000 0000  ....1-1.........
	0x0060:  0000 1904 0f0a 3a22 0000 0000 0000 0000  ......:"........
	0x0070:  0000 0000 0000 0000 0000 0000 0000 0000  ................
	0x0080:  0000 0000 0000 0000 0000 0000 0000 0000  ................
	0x0090:  0000 0000 0000 0000 0000 0000 0000 0000  ................
	0x00a0:  0000 0000 0000 0000 0000 0000 0000 0000  ................
	0x00b0:  0000 0000 0000 0000 0000 0000 0000 0000  ................
	0x00c0:  0000 0000 0000 0000 0000 0000 0000 0000  ................
	0x00d0:  0000 0000 0000 0000 0000 0000 0000 0000  ................
	0x00e0:  0000 0000 0000 0000 430c                 ........C.
10:58:33.423656 IP (tos 0x0, ttl 64, id 64942, offset 0, flags [DF], proto UDP (17), length 220)
    192.168.62.11.35612 > 192.168.62.32.10100: [bad udp cksum 0xfe55 -> 0x9668!] UDP, length 192
	0x0000:  a44c 622e 5a2e 001d f313 1c23 0800 4500  .Lb.Z......#..E.
	0x0010:  00dc fdae 4000 4011 3ee6 c0a8 3e0b c0a8  ....@.@.>...>...
	0x0020:  3e20 8b1c 2774 00c8 fe55 aaaa c000 050b  >...'t...U......
	0x0030:  3300 0000 0000 0000 0000 0000 0000 0000  3...............
	0x0040:  4658 4431 2d4a 3030 3031 0000 0000 b1e4  FXD1-J0001......
	0x0050:  c1f7 b9f1 312d 32ba c50a 0000 0000 0000  ....1-2.........
	0x0060:  0000 1904 0f0a 3a22 0000 0000 0000 0000  ......:"........
	0x0070:  0000 0000 0000 0000 0000 0000 0000 0000  ................
	0x0080:  0000 0000 0000 0000 0000 0000 0000 0000  ................
	0x0090:  0000 0000 0000 0000 0000 0000 0000 0000  ................
	0x00a0:  0000 0000 0000 0000 0000 0000 0000 0000  ................
	0x00b0:  0000 0000 0000 0000 0000 0000 0000 0000  ................
	0x00c0:  0000 0000 0000 0000 0000 0000 0000 0000  ................
	0x00d0:  0000 0000 0000 0000 0000 0000 0000 0000  ................
	0x00e0:  0000 0000 0000 0000 440c                 ........D.
10:58:33.423817 IP (tos 0x0, ttl 64, id 56359, offset 0, flags [DF], proto UDP (17), length 220)
    192.168.62.11.53067 > 192.168.62.33.10100: [bad udp cksum 0xfe56 -> 0x5038!] UDP, length 192
	0x0000:  a44c 6231 2d5c 001d f313 1c23 0800 4500  .Lb1-\.....#..E.
	0x0010:  00dc dc27 4000 4011 606c c0a8 3e0b c0a8  ...'@.@.`l..>...
	0x0020:  3e21 cf4b 2774 00c8 fe56 aaaa c000 050b  >!.K't...V......
	0x0030:  3300 0000 0000 0000 0000 0000 0000 0000  3...............
	0x0040:  4658 4431 2d4a 3030 3031 0000 0000 b1e4  FXD1-J0001......
	0x0050:  c1f7 b9f1 312d 33ba c50a 0000 0000 0000  ....1-3.........
	0x0060:  0000 1904 0f0a 3a22 0000 0000 0000 0000  ......:"........
	0x0070:  0000 0000 0000 0000 0000 0000 0000 0000  ................
	0x0080:  0000 0000 0000 0000 0000 0000 0000 0000  ................
	0x0090:  0000 0000 0000 0000 0000 0000 0000 0000  ................
	0x00a0:  0000 0000 0000 0000 0000 0000 0000 0000  ................
	0x00b0:  0000 0000 0000 0000 0000 0000 0000 0000  ................
	0x00c0:  0000 0000 0000 0000 0000 0000 0000 0000  ................
	0x00d0:  0000 0000 0000 0000 0000 0000 0000 0000  ................
	0x00e0:  0000 0000 0000 0000 450c                 ........E.
10:58:33.423981 IP (tos 0x0, ttl 64, id 25063, offset 0, flags [DF], proto UDP (17), length 220)
    192.168.62.11.33495 > 192.168.62.34.10100: [bad udp cksum 0xfe57 -> 0x9aab!] UDP, length 192
	0x0000:  a44c 622e 5a3a 001d f313 1c23 0800 4500  .Lb.Z:.....#..E.
	0x0010:  00dc 61e7 4000 4011 daab c0a8 3e0b c0a8  ..a.@.@.....>...
	0x0020:  3e22 82d7 2774 00c8 fe57 aaaa c000 050b  >"..'t...W......
	0x0030:  3300 0000 0000 0000 0000 0000 0000 0000  3...............
	0x0040:  4658 4431 2d4a 3030 3031 0000 0000 b1e4  FXD1-J0001......
	0x0050:  c1f7 b9f1 312d 34ba c50a 0000 0000 0000  ....1-4.........
	0x0060:  0000 1904 0f0a 3a22 0000 0000 0000 0000  ......:"........
	0x0070:  0000 0000 0000 0000 0000 0000 0000 0000  ................
	0x0080:  0000 0000 0000 0000 0000 0000 0000 0000  ................
	0x0090:  0000 0000 0000 0000 0000 0000 0000 0000  ................
	0x00a0:  0000 0000 0000 0000 0000 0000 0000 0000  ................
	0x00b0:  0000 0000 0000 0000 0000 0000 0000 0000  ................
	0x00c0:  0000 0000 0000 0000 0000 0000 0000 0000  ................
	0x00d0:  0000 0000 0000 0000 0000 0000 0000 0000  ................
	0x00e0:  0000 0000 0000 0000 460c                 ........F.
10:58:34.466160 IP (tos 0x0, ttl 64, id 2642, offset 0, flags [DF], proto UDP (17), length 220)
    192.168.62.11.36589 > 192.168.62.31.10100: [bad udp cksum 0xfe54 -> 0x9197!] UDP, length 192
	0x0000:  a44c 6225 6011 001d f313 1c23 0800 4500  .Lb%`......#..E.
	0x0010:  00dc 0a52 4000 4011 3244 c0a8 3e0b c0a8  ...R@.@.2D..>...
	0x0020:  3e1f 8eed 2774 00c8 fe54 aaaa c000 050b  >...'t...T......
	0x0030:  3400 0000 0000 0000 0000 0000 0000 0000  4...............
	0x0040:  4658 4431 2d4a 3030 3031 0000 0000 b1e4  FXD1-J0001......
	0x0050:  c1f7 b9f1 312d 31ba c50a 0000 0000 0000  ....1-1.........
	0x0060:  0000 1904 0f0a 3a23 0000 0000 0000 0000  ......:#........
	0x0070:  0000 0000 0000 0000 0000 0000 0000 0000  ................
	0x0080:  0000 0000 0000 0000 0000 0000 0000 0000  ................
	0x0090:  0000 0000 0000 0000 0000 0000 0000 0000  ................
	0x00a0:  0000 0000 0000 0000 0000 0000 0000 0000  ................
	0x00b0:  0000 0000 0000 0000 0000 0000 0000 0000  ................
	0x00c0:  0000 0000 0000 0000 0000 0000 0000 0000  ................
	0x00d0:  0000 0000 0000 0000 0000 0000 0000 0000  ................
	0x00e0:  0000 0000 0000 0000 450c                 ........E.
10:58:34.466343 IP (tos 0x0, ttl 64, id 65131, offset 0, flags [DF], proto UDP (17), length 220)
    192.168.62.11.35612 > 192.168.62.32.10100: [bad udp cksum 0xfe55 -> 0x9367!] UDP, length 192
	0x0000:  a44c 622e 5a2e 001d f313 1c23 0800 4500  .Lb.Z......#..E.
	0x0010:  00dc fe6b 4000 4011 3e29 c0a8 3e0b c0a8  ...k@.@.>)..>...
	0x0020:  3e20 8b1c 2774 00c8 fe55 aaaa c000 050b  >...'t...U......
	0x0030:  3400 0000 0000 0000 0000 0000 0000 0000  4...............
	0x0040:  4658 4431 2d4a 3030 3031 0000 0000 b1e4  FXD1-J0001......
	0x0050:  c1f7 b9f1 312d 32ba c50a 0000 0000 0000  ....1-2.........
	0x0060:  0000 1904 0f0a 3a23 0000 0000 0000 0000  ......:#........
	0x0070:  0000 0000 0000 0000 0000 0000 0000 0000  ................
	0x0080:  0000 0000 0000 0000 0000 0000 0000 0000  ................
	0x0090:  0000 0000 0000 0000 0000 0000 0000 0000  ................
	0x00a0:  0000 0000 0000 0000 0000 0000 0000 0000  ................
	0x00b0:  0000 0000 0000 0000 0000 0000 0000 0000  ................
	0x00c0:  0000 0000 0000 0000 0000 0000 0000 0000  ................
	0x00d0:  0000 0000 0000 0000 0000 0000 0000 0000  ................
	0x00e0:  0000 0000 0000 0000 460c                 ........F.
10:58:34.466509 IP (tos 0x0, ttl 64, id 56507, offset 0, flags [DF], proto UDP (17), length 220)
    192.168.62.11.53067 > 192.168.62.33.10100: [bad udp cksum 0xfe56 -> 0x4d37!] UDP, length 192
	0x0000:  a44c 6231 2d5c 001d f313 1c23 0800 4500  .Lb1-\.....#..E.
	0x0010:  00dc dcbb 4000 4011 5fd8 c0a8 3e0b c0a8  ....@.@._...>...
	0x0020:  3e21 cf4b 2774 00c8 fe56 aaaa c000 050b  >!.K't...V......
	0x0030:  3400 0000 0000 0000 0000 0000 0000 0000  4...............
	0x0040:  4658 4431 2d4a 3030 3031 0000 0000 b1e4  FXD1-J0001......
	0x0050:  c1f7 b9f1 312d 33ba c50a 0000 0000 0000  ....1-3.........
	0x0060:  0000 1904 0f0a 3a23 0000 0000 0000 0000  ......:#........
	0x0070:  0000 0000 0000 0000 0000 0000 0000 0000  ................
	0x0080:  0000 0000 0000 0000 0000 0000 0000 0000  ................
	0x0090:  0000 0000 0000 0000 0000 0000 0000 0000  ................
	0x00a0:  0000 0000 0000 0000 0000 0000 0000 0000  ................
	0x00b0:  0000 0000 0000 0000 0000 0000 0000 0000  ................
	0x00c0:  0000 0000 0000 0000 0000 0000 0000 0000  ................
	0x00d0:  0000 0000 0000 0000 0000 0000 0000 0000  ................
	0x00e0:  0000 0000 0000 0000 470c                 ........G.
10:58:34.466666 IP (tos 0x0, ttl 64, id 25109, offset 0, flags [DF], proto UDP (17), length 220)
    192.168.62.11.33495 > 192.168.62.34.10100: [bad udp cksum 0xfe57 -> 0x97aa!] UDP, length 192
	0x0000:  a44c 622e 5a3a 001d f313 1c23 0800 4500  .Lb.Z:.....#..E.
	0x0010:  00dc 6215 4000 4011 da7d c0a8 3e0b c0a8  ..b.@.@..}..>...
	0x0020:  3e22 82d7 2774 00c8 fe57 aaaa c000 050b  >"..'t...W......
	0x0030:  3400 0000 0000 0000 0000 0000 0000 0000  4...............
	0x0040:  4658 4431 2d4a 3030 3031 0000 0000 b1e4  FXD1-J0001......
	0x0050:  c1f7 b9f1 312d 34ba c50a 0000 0000 0000  ....1-4.........
	0x0060:  0000 1904 0f0a 3a23 0000 0000 0000 0000  ......:#........
	0x0070:  0000 0000 0000 0000 0000 0000 0000 0000  ................
	0x0080:  0000 0000 0000 0000 0000 0000 0000 0000  ................
	0x0090:  0000 0000 0000 0000 0000 0000 0000 0000  ................
	0x00a0:  0000 0000 0000 0000 0000 0000 0000 0000  ................
	0x00b0:  0000 0000 0000 0000 0000 0000 0000 0000  ................
	0x00c0:  0000 0000 0000 0000 0000 0000 0000 0000  ................
	0x00d0:  0000 0000 0000 0000 0000 0000 0000 0000  ................
	0x00e0:  0000 0000 0000 0000 480c                 ........H.
10:58:35.504504 IP (tos 0x0, ttl 64, id 2805, offset 0, flags [DF], proto UDP (17), length 220)
    192.168.62.11.36589 > 192.168.62.31.10100: [bad udp cksum 0xfe54 -> 0x8f97!] UDP, length 192
	0x0000:  a44c 6225 6011 001d f313 1c23 0800 4500  .Lb%`......#..E.
	0x0010:  00dc 0af5 4000 4011 31a1 c0a8 3e0b c0a8  ....@.@.1...>...
	0x0020:  3e1f 8eed 2774 00c8 fe54 aaaa c000 050b  >...'t...T......
	0x0030:  3500 0000 0000 0000 0000 0000 0000 0000  5...............
	0x0040:  4658 4431 2d4a 3030 3031 0000 0000 b1e4  FXD1-J0001......
	0x0050:  c1f7 b9f1 312d 31ba c50a 0000 0000 0000  ....1-1.........
	0x0060:  0000 1904 0f0a 3a23 0000 0000 0000 0000  ......:#........
	0x0070:  0000 0000 0000 0000 0000 0000 0000 0000  ................
	0x0080:  0000 0000 0000 0000 0000 0000 0000 0000  ................
	0x0090:  0000 0000 0000 0000 0000 0000 0000 0000  ................
	0x00a0:  0000 0000 0000 0000 0000 0000 0000 0000  ................
	0x00b0:  0000 0000 0000 0000 0000 0000 0000 0000  ................
	0x00c0:  0000 0000 0000 0000 0000 0000 0000 0000  ................
	0x00d0:  0000 0000 0000 0000 0000 0000 0000 0000  ................
	0x00e0:  0000 0000 0000 0000 460c                 ........F.
10:58:35.504725 IP (tos 0x0, ttl 64, id 65187, offset 0, flags [DF], proto UDP (17), length 220)
    192.168.62.11.35612 > 192.168.62.32.10100: [bad udp cksum 0xfe55 -> 0x9167!] UDP, length 192
	0x0000:  a44c 622e 5a2e 001d f313 1c23 0800 4500  .Lb.Z......#..E.
	0x0010:  00dc fea3 4000 4011 3df1 c0a8 3e0b c0a8  ....@.@.=...>...
	0x0020:  3e20 8b1c 2774 00c8 fe55 aaaa c000 050b  >...'t...U......
	0x0030:  3500 0000 0000 0000 0000 0000 0000 0000  5...............
	0x0040:  4658 4431 2d4a 3030 3031 0000 0000 b1e4  FXD1-J0001......
	0x0050:  c1f7 b9f1 312d 32ba c50a 0000 0000 0000  ....1-2.........
	0x0060:  0000 1904 0f0a 3a23 0000 0000 0000 0000  ......:#........
	0x0070:  0000 0000 0000 0000 0000 0000 0000 0000  ................
	0x0080:  0000 0000 0000 0000 0000 0000 0000 0000  ................
	0x0090:  0000 0000 0000 0000 0000 0000 0000 0000  ................
	0x00a0:  0000 0000 0000 0000 0000 0000 0000 0000  ................
	0x00b0:  0000 0000 0000 0000 0000 0000 0000 0000  ................
	0x00c0:  0000 0000 0000 0000 0000 0000 0000 0000  ................
	0x00d0:  0000 0000 0000 0000 0000 0000 0000 0000  ................
	0x00e0:  0000 0000 0000 0000 470c                 ........G.
10:58:35.504935 IP (tos 0x0, ttl 64, id 56723, offset 0, flags [DF], proto UDP (17), length 220)
    192.168.62.11.53067 > 192.168.62.33.10100: [bad udp cksum 0xfe56 -> 0x4b37!] UDP, length 192
	0x0000:  a44c 6231 2d5c 001d f313 1c23 0800 4500  .Lb1-\.....#..E.
	0x0010:  00dc dd93 4000 4011 5f00 c0a8 3e0b c0a8  ....@.@._...>...
	0x0020:  3e21 cf4b 2774 00c8 fe56 aaaa c000 050b  >!.K't...V......
	0x0030:  3500 0000 0000 0000 0000 0000 0000 0000  5...............
	0x0040:  4658 4431 2d4a 3030 3031 0000 0000 b1e4  FXD1-J0001......
	0x0050:  c1f7 b9f1 312d 33ba c50a 0000 0000 0000  ....1-3.........
	0x0060:  0000 1904 0f0a 3a23 0000 0000 0000 0000  ......:#........
	0x0070:  0000 0000 0000 0000 0000 0000 0000 0000  ................
	0x0080:  0000 0000 0000 0000 0000 0000 0000 0000  ................
	0x0090:  0000 0000 0000 0000 0000 0000 0000 0000  ................
	0x00a0:  0000 0000 0000 0000 0000 0000 0000 0000  ................
	0x00b0:  0000 0000 0000 0000 0000 0000 0000 0000  ................
	0x00c0:  0000 0000 0000 0000 0000 0000 0000 0000  ................
	0x00d0:  0000 0000 0000 0000 0000 0000 0000 0000  ................
	0x00e0:  0000 0000 0000 0000 480c                 ........H.
10:58:35.505151 IP (tos 0x0, ttl 64, id 25164, offset 0, flags [DF], proto UDP (17), length 220)
    192.168.62.11.33495 > 192.168.62.34.10100: [bad udp cksum 0xfe57 -> 0x95aa!] UDP, length 192
	0x0000:  a44c 622e 5a3a 001d f313 1c23 0800 4500  .Lb.Z:.....#..E.
	0x0010:  00dc 624c 4000 4011 da46 c0a8 3e0b c0a8  ..bL@.@..F..>...
	0x0020:  3e22 82d7 2774 00c8 fe57 aaaa c000 050b  >"..'t...W......
	0x0030:  3500 0000 0000 0000 0000 0000 0000 0000  5...............
	0x0040:  4658 4431 2d4a 3030 3031 0000 0000 b1e4  FXD1-J0001......
	0x0050:  c1f7 b9f1 312d 34ba c50a 0000 0000 0000  ....1-4.........
	0x0060:  0000 1904 0f0a 3a23 0000 0000 0000 0000  ......:#........
	0x0070:  0000 0000 0000 0000 0000 0000 0000 0000  ................
	0x0080:  0000 0000 0000 0000 0000 0000 0000 0000  ................
	0x0090:  0000 0000 0000 0000 0000 0000 0000 0000  ................
	0x00a0:  0000 0000 0000 0000 0000 0000 0000 0000  ................
	0x00b0:  0000 0000 0000 0000 0000 0000 0000 0000  ................
	0x00c0:  0000 0000 0000 0000 0000 0000 0000 0000  ................
	0x00d0:  0000 0000 0000 0000 0000 0000 0000 0000  ................
	0x00e0:  0000 0000 0000 0000 490c                 ........I.
10:58:36.547284 IP (tos 0x0, ttl 64, id 2957, offset 0, flags [DF], proto UDP (17), length 220)
    192.168.62.11.36589 > 192.168.62.31.10100: [bad udp cksum 0xfe54 -> 0x8894!] UDP, length 192
	0x0000:  a44c 6225 6011 001d f313 1c23 0800 4500  .Lb%`......#..E.
	0x0010:  00dc 0b8d 4000 4011 3109 c0a8 3e0b c0a8  ....@.@.1...>...
	0x0020:  3e1f 8eed 2774 00c8 fe54 aaaa c000 050b  >...'t...T......
	0x0030:  3700 0000 0000 0000 0000 0000 0000 0000  7...............
	0x0040:  4658 4431 2d4a 3030 3031 0000 0000 b1e4  FXD1-J0001......
	0x0050:  c1f7 b9f1 312d 31ba c50a 0000 0000 0000  ....1-1.........
	0x0060:  0000 1904 0f0a 3a26 0000 0000 0000 0000  ......:&........
	0x0070:  0000 0000 0000 0000 0000 0000 0000 0000  ................
	0x0080:  0000 0000 0000 0000 0000 0000 0000 0000  ................
	0x0090:  0000 0000 0000 0000 0000 0000 0000 0000  ................
	0x00a0:  0000 0000 0000 0000 0000 0000 0000 0000  ................
	0x00b0:  0000 0000 0000 0000 0000 0000 0000 0000  ................
	0x00c0:  0000 0000 0000 0000 0000 0000 0000 0000  ................
	0x00d0:  0000 0000 0000 0000 0000 0000 0000 0000  ................
	0x00e0:  0000 0000 0000 0000 4b0c                 ........K.
10:58:36.547470 IP (tos 0x0, ttl 64, id 65238, offset 0, flags [DF], proto UDP (17), length 220)
    192.168.62.11.35612 > 192.168.62.32.10100: [bad udp cksum 0xfe55 -> 0x8a64!] UDP, length 192
	0x0000:  a44c 622e 5a2e 001d f313 1c23 0800 4500  .Lb.Z......#..E.
	0x0010:  00dc fed6 4000 4011 3dbe c0a8 3e0b c0a8  ....@.@.=...>...
	0x0020:  3e20 8b1c 2774 00c8 fe55 aaaa c000 050b  >...'t...U......
	0x0030:  3700 0000 0000 0000 0000 0000 0000 0000  7...............
	0x0040:  4658 4431 2d4a 3030 3031 0000 0000 b1e4  FXD1-J0001......
	0x0050:  c1f7 b9f1 312d 32ba c50a 0000 0000 0000  ....1-2.........
	0x0060:  0000 1904 0f0a 3a26 0000 0000 0000 0000  ......:&........
	0x0070:  0000 0000 0000 0000 0000 0000 0000 0000  ................
	0x0080:  0000 0000 0000 0000 0000 0000 0000 0000  ................
	0x0090:  0000 0000 0000 0000 0000 0000 0000 0000  ................
	0x00a0:  0000 0000 0000 0000 0000 0000 0000 0000  ................
	0x00b0:  0000 0000 0000 0000 0000 0000 0000 0000  ................
	0x00c0:  0000 0000 0000 0000 0000 0000 0000 0000  ................
	0x00d0:  0000 0000 0000 0000 0000 0000 0000 0000  ................
	0x00e0:  0000 0000 0000 0000 4c0c                 ........L.
10:58:36.547636 IP (tos 0x0, ttl 64, id 56871, offset 0, flags [DF], proto UDP (17), length 220)
    192.168.62.11.53067 > 192.168.62.33.10100: [bad udp cksum 0xfe56 -> 0x4434!] UDP, length 192
	0x0000:  a44c 6231 2d5c 001d f313 1c23 0800 4500  .Lb1-\.....#..E.
	0x0010:  00dc de27 4000 4011 5e6c c0a8 3e0b c0a8  ...'@.@.^l..>...
	0x0020:  3e21 cf4b 2774 00c8 fe56 aaaa c000 050b  >!.K't...V......
	0x0030:  3700 0000 0000 0000 0000 0000 0000 0000  7...............
	0x0040:  4658 4431 2d4a 3030 3031 0000 0000 b1e4  FXD1-J0001......
	0x0050:  c1f7 b9f1 312d 33ba c50a 0000 0000 0000  ....1-3.........
	0x0060:  0000 1904 0f0a 3a26 0000 0000 0000 0000  ......:&........
	0x0070:  0000 0000 0000 0000 0000 0000 0000 0000  ................
	0x0080:  0000 0000 0000 0000 0000 0000 0000 0000  ................
	0x0090:  0000 0000 0000 0000 0000 0000 0000 0000  ................
	0x00a0:  0000 0000 0000 0000 0000 0000 0000 0000  ................
	0x00b0:  0000 0000 0000 0000 0000 0000 0000 0000  ................
	0x00c0:  0000 0000 0000 0000 0000 0000 0000 0000  ................
	0x00d0:  0000 0000 0000 0000 0000 0000 0000 0000  ................
	0x00e0:  0000 0000 0000 0000 4d0c                 ........M.
10:58:36.547828 IP (tos 0x0, ttl 64, id 25186, offset 0, flags [DF], proto UDP (17), length 220)
    192.168.62.11.33495 > 192.168.62.34.10100: [bad udp cksum 0xfe57 -> 0x8ea7!] UDP, length 192
	0x0000:  a44c 622e 5a3a 001d f313 1c23 0800 4500  .Lb.Z:.....#..E.
	0x0010:  00dc 6262 4000 4011 da30 c0a8 3e0b c0a8  ..bb@.@..0..>...
	0x0020:  3e22 82d7 2774 00c8 fe57 aaaa c000 050b  >"..'t...W......
	0x0030:  3700 0000 0000 0000 0000 0000 0000 0000  7...............
	0x0040:  4658 4431 2d4a 3030 3031 0000 0000 b1e4  FXD1-J0001......
	0x0050:  c1f7 b9f1 312d 34ba c50a 0000 0000 0000  ....1-4.........
	0x0060:  0000 1904 0f0a 3a26 0000 0000 0000 0000  ......:&........
	0x0070:  0000 0000 0000 0000 0000 0000 0000 0000  ................
	0x0080:  0000 0000 0000 0000 0000 0000 0000 0000  ................
	0x0090:  0000 0000 0000 0000 0000 0000 0000 0000  ................
	0x00a0:  0000 0000 0000 0000 0000 0000 0000 0000  ................
	0x00b0:  0000 0000 0000 0000 0000 0000 0000 0000  ................
	0x00c0:  0000 0000 0000 0000 0000 0000 0000 0000  ................
	0x00d0:  0000 0000 0000 0000 0000 0000 0000 0000  ................
	0x00e0:  0000 0000 0000 0000 4e0c                 ........N.
10:58:37.597107 IP (tos 0x0, ttl 64, id 2966, offset 0, flags [DF], proto UDP (17), length 220)
    192.168.62.11.36589 > 192.168.62.31.10100: [bad udp cksum 0xfe54 -> 0x8593!] UDP, length 192
	0x0000:  a44c 6225 6011 001d f313 1c23 0800 4500  .Lb%`......#..E.
	0x0010:  00dc 0b96 4000 4011 3100 c0a8 3e0b c0a8  ....@.@.1...>...
	0x0020:  3e1f 8eed 2774 00c8 fe54 aaaa c000 050b  >...'t...T......
	0x0030:  3800 0000 0000 0000 0000 0000 0000 0000  8...............
	0x0040:  4658 4431 2d4a 3030 3031 0000 0000 b1e4  FXD1-J0001......
	0x0050:  c1f7 b9f1 312d 31ba c50a 0000 0000 0000  ....1-1.........
	0x0060:  0000 1904 0f0a 3a27 0000 0000 0000 0000  ......:'........
	0x0070:  0000 0000 0000 0000 0000 0000 0000 0000  ................
	0x0080:  0000 0000 0000 0000 0000 0000 0000 0000  ................
	0x0090:  0000 0000 0000 0000 0000 0000 0000 0000  ................
	0x00a0:  0000 0000 0000 0000 0000 0000 0000 0000  ................
	0x00b0:  0000 0000 0000 0000 0000 0000 0000 0000  ................
	0x00c0:  0000 0000 0000 0000 0000 0000 0000 0000  ................
	0x00d0:  0000 0000 0000 0000 0000 0000 0000 0000  ................
	0x00e0:  0000 0000 0000 0000 4d0c                 ........M.
10:58:37.597289 IP (tos 0x0, ttl 64, id 65487, offset 0, flags [DF], proto UDP (17), length 220)
    192.168.62.11.35612 > 192.168.62.32.10100: [bad udp cksum 0xfe55 -> 0x8763!] UDP, length 192
	0x0000:  a44c 622e 5a2e 001d f313 1c23 0800 4500  .Lb.Z......#..E.
	0x0010:  00dc ffcf 4000 4011 3cc5 c0a8 3e0b c0a8  ....@.@.<...>...
	0x0020:  3e20 8b1c 2774 00c8 fe55 aaaa c000 050b  >...'t...U......
	0x0030:  3800 0000 0000 0000 0000 0000 0000 0000  8...............
	0x0040:  4658 4431 2d4a 3030 3031 0000 0000 b1e4  FXD1-J0001......
